:020000040800F2
:10000000C82B002021020008CB1C0008591A000848
:10001000C91C00088B03000829210008000000000B
:10002000000000000000000000000000890100083E
:100030008D03000800000000CD010008E51C000849
:100040003B0200083B0200083B0200083B0200089C
:100050003B0200083B0200083B0200083B0200088C
:100060003B0200083B0200083B0200083B0200087C
:100070003B0200083B0200083B0200083B0200086C
:100080003B0200083B0200083B0200083B0200085C
:100090001D2100083B0200083B0200083B0200084B
:1000A0003B0200083B0200083B0200083B0200083C
:1000B0003B0200083B020008711D00083B020008DB
:1000C0003B0200083B0200083B0200083B0200081C
:1000D0003B0200083B020008112100083B02000817
:1000E0003B0200083B0200083B02000800F002F857
:1000F00000F03AF80AA090E8000C82448344AAF188
:100100000107DA4501D100F02FF8AFF2090EBAE885
:100110000F0013F0010F18BFFB1A43F0010318473B
:10012000582B0000782B0000103A24BF78C878C103
:10013000FAD8520724BF30C830C144BF04680C60ED
:10014000704700000023002400250026103A28BF35
:1001500078C1FBD8520728BF30C148BF0B60704739
:100160001FB51FBD10B510BD00F0D6F81146FFF742
:10017000F7FF01F0EAFF00F0F4F803B4FFF7F2FF35
:1001800003BC00F0FBF80000224B19680868B0E8D7
:10019000F00F80F30988BFF36F8F4FF0000080F3FA
:1001A00011884EF00D0E70470000000006480068F0
:1001B000006880F3088862B661B6BFF34F8FBFF363
:1001C0006F8F00DF00BF00BF08ED00E0EFF3098094
:1001D000BFF36F8F0F4B1A6820E9F00F106008B55E
:1001E0004FF0500080F31188BFF34F8FBFF36F8F34
:1001F00002F04EFB4FF0000080F31188BDE808408C
:1002000019680868B0E8F00F80F30988BFF36F8FB2
:10021000704700BF1C000020EFF30580704700000E
:100220000948804709480047FEE7FEE7FEE7FEE78A
:10023000FEE7FEE7FEE7FEE7FEE7FEE704480549C6
:10024000054A064B704700006F1D0008ED000008CE
:10025000C8250020C82B0020C8270020C827002060
:1002600010B5203AC0F00B80B1E81850203AA0E851
:100270001850B1E81850A0E81850BFF4F5AF5FEA85
:10028000027C24BFB1E81850A0E8185044BF18C938
:1002900018C0BDE810405FEA827C24BF51F8043BDF
:1002A00040F8043B08BF7047D20728BF31F8023B33
:1002B00048BF11F8012B28BF20F8023B48BF00F8C7
:1002C000012B70474FF0000200B513469446964646
:1002D000203922BFA0E80C50A0E80C50B1F1200159
:1002E000BFF4F7AF090728BFA0E80C5048BF0CC007
:1002F0005DF804EB890028BF40F8042B08BF704765
:1003000048BF20F8022B11F0804F18BF00F8012BD6
:100310007047704770477047754600F02BF8AE463F
:1003200005006946534620F00700854618B020B501
:10033000FFF784FFBDE820404FF000064FF00007B4
:100340004FF000084FF0000B21F00701AC46ACE87D
:10035000C009ACE8C009ACE8C009ACE8C0098D46EA
:10036000704710B50446AFF300802046BDE810404A
:10037000FFF703BF0048704764250020014918209B
:10038000ABBEFEE7260002007047FEE7704772B67C
:10039000FEE770472DE9F05F0546006800244669D6
:1003A000D0F804908768D0F80CB0D0F810A0D0F83E
:1003B0001880F10748D0F90714D001218160B807EF
:1003C00003D5284600F0B6F90CE0780702D54FF4C3
:1003D000006407E0380702D54FF4805402E0284655
:1003E00000F0A7F9F80516D529684FF480708860E9
:1003F000B80503D5284600F09FF90CE0780502D532
:1004000044F4005407E0380502D544F4804402E087
:10041000284600F090F9F80316D529684FF480308B
:100420008860B80303D5284600F088F90CE078030B
:1004300002D544F4004407E0380302D544F4803484
:1004400002E0284600F079F9300707D55FEACB6073
:1004500004D52968102044F40074C86070074FF078
:10046000080707D55FEA0B7004D52868C7602846DF
:1004700000F05AF9B00706D52868C068800702D096
:10048000284600F052F9700607D55FEACA6004D525
:100490002968102044F480640861B00607D55FEA3B
:1004A0000A7004D528680761284600F03FF9F00675
:1004B00006D528680069800702D0284600F037F981
:1004C000B00308D55FEAC96005D5296810204860E7
:1004D000284600F02DF9F00307D55FEA097004D52E
:1004E00028684760284600F02AF9300446D55FEABC
:1004F000497040D5F00504D55FEAC87001D044F0DA
:100500000104B00504D55FEA887001D544F0020407
:10051000700504D55FEA487001D544F00404300545
:1005200029D518F0700F26D008F07000402815D09B
:1005300006DC102809D020280AD0302816D10AE07D
:1005400050280ED0602811D10EE044F008040DE0D0
:1005500044F010040AE044F0200407E044F04004B2
:1005600004E044F0800401E044F480742868816968
:1005700021F070018161296804204860002C05D0B9
:10058000686A204368622846FFF703FFBDE8F09FD2
:1005900070B5040003D094F8200010B104E00120ED
:1005A00070BD204600F082F82068016841F001012A
:1005B000016000F02BFA0546052604E000F026FA5B
:1005C000401B0A2811D820684068C007F6D0206870
:1005D000016821F00201016000F018FA05460BE005
:1005E00000F014FA401B0A2806D9606A40F4003073
:1005F000606284F82060D2E7206840688007EFD40A
:10060000207E0128206801683DD021F08001016032
:10061000607E01282068016838D021F04001016027
:10062000A07E01282068016833D021F020010160FC
:10063000E07E0128206801682ED041F010010160A1
:10064000207F01282068016829D021F0080101607D
:10065000607F01282068016824D021F00401016036
:10066000D4E902010843D4E9041211430843616844
:10067000491E08432168C86100206062012084F897
:100680002000002070BD41F08001C0E741F0400132
:10069000C5E741F02001CAE721F01001CFE741F0A2
:1006A0000801D4E741F00401D9E7000010B586B095
:1006B000002100910191029103910068174988423D
:1006C0002AD11748C16941F00071C161C16901F0C7
:1006D00000710491816941F0040181618069114CCC
:1006E00000F0040004904FF400600090694620463A
:1006F00000F096F8A01400900220019003200390CF
:100700006946204600F08CF800220521142000F0F4
:100710000DFB142000F0FCFA06B010BD0064004090
:100720000010024000080140704770477047704752
:100730007047704770477047704770477047704701
:1007400010B590F821100022022905D00421816300
:1007500080F82020012010BD01680B6823F00E03F3
:100760000B6001680B6823F001030B6090F84030C8
:10077000C46B012101FA03F3636080F8211080F853
:100780002020104610BD000010B590F82110002464
:10079000022903D00421816301243DE001680A6835
:1007A00022F00E020A6001680A6822F001020A6063
:1007B0001A4A0168914201D1012121E0174A1432FD
:1007C000914201D110211BE0144A2832914201D1FB
:1007D000891515E0114A3C32914201D189140FE08C
:1007E0000E4A5032914202D14FF4803108E00B4A58
:1007F0006432914202D14FF4801101E04FF08071D8
:10080000064A083A5160012180F82110002180F841
:100810002010416B01B18847204610BD08000240FE
:100820002DE9F84FDFF8B8910024A9F1040B234615
:100830000F2709F1040AABF1040EC9E00125A54018
:100840002A40AA427DD1674ED1F804C0ACEB06081D
:10085000B44532D014DCBCF1030F3AD009DCBCF152
:10086000000F2AD0BCF1010F1CD0BCF1020F31D116
:100870001DE0BCF1110F17D0BCF1120F2AD119E005
:10088000B8F5881F19D006DCB8F5803F15D0B8F54B
:10089000801F1FD111E0B8F5001F0ED0B8F5041F5E
:1008A00018D10AE0CB6815E0CB681B1D12E0CB68BD
:1008B00008330FE0CB680C330CE08B682BB1012BB5
:1008C0004FF0080303D0456104E0042302E0056112
:1008D00000E00023FF2A01D8064601E000F10406EB
:1008E0004FEA840501D9A5F12005D6F8008007FA62
:1008F00005FC28EA0C0803FA05F548EA0508C6F8DD
:1009000000804D68ED0062D5374DAE6946F00106B6
:10091000AE61AD6924F0030605F001050095334D85
:1009200006EB050CDCF80850A607360F07FA06F8A8
:1009300025EA0805DFF8B880404503D14FF00008EC
:1009400017E044E0DFF8AC80404502D14FF00108E9
:100950000FE0DFF8A480404502D14FF0020808E024
:10096000DFF89880404502D14FF0030801E04FF0D6
:10097000040808FA06F848EA0508CCF808804D682B
:10098000D9F80060ED024D4601D5164300E09643CC
:100990002E604D68DAF80060AD02554601D5164369
:1009A00000E096432E604D68DBF80060AD035D46C5
:1009B00001D5164300E096432E604D68DEF80060D6
:1009C000ED03754601D5164300E096432E60641C86
:1009D0000D682A46E5407FF431AFBDE8F88F00008E
:1009E0000804014000001110001002400000014006
:1009F00000080140000C01400010014000140140BB
:100A00000AB1016170470904FBE7000001488068F2
:100A1000704700000C00002070B5040025D094F849
:100A20003D00002520B984F83C50204600F0B8F87D
:100A3000242084F83D002068016821F00101016054
:100A40002068016841F4004101602068016821F4D8
:100A50000041016000F052FA4D4A6168914201D8AC
:100A60004C4900E04C49884201D2012070BD4B49FD
:100A70002368B0FBF1F15E6826F03F060E435E602E
:100A80006368934206D94FF4967359434FF47A73CF
:100A9000B1FBF3F12368491C1E6A26F03F0631437F
:100AA00019626168914210D84900401EB0FBF1F212
:100AB000521CC2F30B02042A01D2042022E0B0FB34
:100AC000F1F0401CC0F30B001CE0A268F2B301EB94
:100AD000C10303EB0116431EB3FBF6F35B1C43F4A7
:100AE00080431B0549D092B301EBC10202EB011117
:100AF000401EB0FBF1F0401CC0F30B0040F48040FE
:100B000040F400402168CA694CF6FF739A431043D1
:100B1000C861D4E9071001432068026822F0C002CE
:100B200011430160D4E9030101432068826848F25F
:100B3000FF339A4311438160D4E9050108432168DA
:100B4000CA6822F0FF021043C86001E00EE016E020
:100B50002068016841F0010101602564202084F8CB
:100B60003D00256384F83E50002070BD01EB410636
:100B7000431EB3FBF6F35B1CB3E70120C2E701EBB6
:100B80004101401EB0FBF1F0401CC0F30B00B7E781
:100B9000A086010080841E0000093D0040420F0035
:100BA00010B586B000210091019102910391006877
:100BB0000F4988421AD10F4CA06940F00800A0618B
:100BC000A069694600F008000490C020009012203F
:100BD0000190032003900848FFF722FEE06940F4EB
:100BE0000010E061E06900F40010049006B010BD50
:100BF0000054004000100240000C0140024881688F
:100C000002781144816070470C000020074810B53D
:100C1000016841F010010160032000F0A7F80F20E7
:100C200000F006F800F050F8002010BD002002404F
:100C300030B505461F4887B0C16941F00401C16164
:100C4000C06906A900F00400009001A800F036F980
:100C50000498B0B100F052F940001749174AB0FBB0
:100C6000F1F11748491E0260416040F2E73200216D
:100C7000C0E903218160816100F04CFB040003D0D6
:100C800015E000F03BF9E8E70D4800F071FB0400C7
:100C90000DD11E2000F03CF8102D07D2002229466D
:100CA0001E2000F043F80748056000E0012407B06B
:100CB000204630BD0010024040420F0000080040B6
:100CC0002C040020100000200F4808B5816941F075
:100CD00001018161816901F001010091C16941F067
:100CE0008051C161C069002200F0805000900F2146
:100CF000901E00F01BF80548416821F0E06141F0CA
:100D00000071416008BD0000001002400000014079
:100D1000002809DB00F01F020121914040098000FA
:100D200000F1E020C0F8001170470000F0B40E4B55
:100D30001B680C46C3F30223C3F10705042D00D939
:100D40000425191D072901D2002300E0DB1E01261E
:100D500006FA05F1491E214099409E40761E164034
:100D60003143F0BC01F0E1B90CED00E0064900F0C0
:100D7000070208684FF6FF03184040EA0220034AC2
:100D800010430860704700000CED00E00000FA0519
:100D90002DE9F0470F46050061D0434E306800F062
:100DA0000700B84209D2306820F0070038433060AD
:100DB000306800F00700B84251D128683B4C8107E9
:100DC00012D5400703D5606840F4E0606060287881
:100DD000000703D5606840F4605060606068A968EF
:100DE00020F0F000084360602878C00728D06868C9
:100DF000012810D02168022810D0890700292EDA96
:100E0000616821F0030101436160FFF7FFFD804647
:100E100041F288390DE021688903EFE78901EDE7A8
:100E2000FFF7F4FDA0EB0801494502D90320BDE816
:100E3000F0876068696800F00C00B0EB810FEFD1BB
:100E4000306800F00700B8420BD9306820F0070086
:100E500038433060306800F00700B84201D001200C
:100E6000E5E72878400705D56068E96820F4E06088
:100E7000084360602878000706D56068296920F477
:100E8000605040EAC100606000F058F86168084AAC
:100E9000C1F30311515CC840064908600648006868
:100EA000FFF7C6FE0020C2E700200240001002400B
:100EB0003A2C000818000020100000200F220260C9
:100EC0000C4A536803F003034360536803F0F003D4
:100ED0008360536803F4E063C36052684FF4E063D7
:100EE00003EAD20202610448006800F007000860CB
:100EF00070470000001002400020024004480549ED
:100F000000684968044AC1F30221515CC840704737
:100F100018000020001002404A2C0008044805492F
:100F200000684968044AC1F3C221515CC840704757
:100F300018000020001002404A2C00080E4A516898
:100F40000E4801F00C03042B11D0082B0FD10C48D4
:100F5000C1F38343C903C05C0AD55168084AC1F391
:100F60004041921E515C054A5043B0FBF1F070477E
:100F700004494843704700000010024000127A0004
:100F80002A2C000800093D002DE9F84F040070D01C
:100F90002078C04DC00749D06868C0F3810001289F
:100FA00007D06868C0F38100022809D16868C003CF
:100FB00006D52868800339D560680028E7D035E079
:100FC0006068B0F5803F0BD010B1B0F5A02F11D004
:100FD000286820F480302860286820F4802002E00F
:100FE000286840F480302860606890B1FFF70EFDFB
:100FF00006460AE0286840F480202860F0E700BF39
:10100000FFF704FD801B642873D828688003F7D598
:101010000CE0FFF7FBFC064605E000BFFFF7F6FC1F
:10102000801B6428F0D828688003F7D420789A4E73
:1010300080074FF001094FF0000839D5686810F0BB
:101040000C0F07D06868C0F38100022809D16868D6
:10105000C00306D42868800714D52069012808D168
:1010600010E02069B0B1C6F80090FFF7CFFC07464A
:1010700005E00AE1FFF7CAFCC01B0228C4D82868B3
:101080008007F7D52868616920F0F80040EAC100C0
:1010900028600DE0C6F80080FFF7B8FC074604E0C2
:1010A000FFF7B4FCC01B022823D828688007F7D4B8
:1010B000207800072CD57948A169D9B1C0F80090F3
:1010C000FFF7A4FC074604E0FFF7A0FCC01B0228C2
:1010D0000FD8686A8007F7D571484FF4FA51006855
:1010E000B0FBF1F0009000BF0098411E0091FAD2D1
:1010F0000EE080E0C0F80080FFF788FC074604E0BF
:10110000FFF784FCC01B022875D8686A8007F7D4F3
:101110002078400760D5E8690027C00008D4E86956
:1011200040F08050E861E869012700F080500090AD
:101130005C480168C90513D40168834641F4807195
:101140000160FFF763FC824606E000BFFFF75EFC2C
:10115000A0EB0A0064284ED8DBF80000C005F5D5E6
:10116000E06801280AD008B1052813D0286A20F0C9
:1011700001002862286A20F0040002E0286A40F09A
:1011800001002862E06841F2883B98B1FFF73EFC1D
:1011900082460BE0286A40F004002862EEE700BFB8
:1011A000FFF734FCA0EB0A0159455AD8286A80079A
:1011B000F6D50CE0FFF72AFC824605E0FFF726FC97
:1011C000A0EB0A0159454CD8286A8007F6D41FB114
:1011D000E86920F08050E861E06988B36968C1F38C
:1011E0008101022944D00228C6F8608004D0FFF7AC
:1011F0000DFC044638E034E0FFF708FC074604E045
:10120000FFF704FCC01B02282BD828688001F7D404
:10121000206AB0F5803F05D16868A16820F40030ED
:1012200008436860D4E908010843696821F474112F
:1012300008436860C6F86090FFF7E8FB044606E0E4
:1012400025E000BFFFF7E2FB001B022809D8286851
:101250008001F7D51BE000BFFFF7D8FB001B022879
:1012600002D90320BDE8F88F28688001F4D40EE08D
:101270000128F7D06868226A00F48031914204D1D5
:10128000616A00F47010884201D00120EAE7002072
:10129000E8E70000001002400000424280044242A1
:1012A00018000020007000407047704770B590F83B
:1012B0003C20012A26D0012480F83C40022280F8FC
:1012C0003D2003685A689D6822F070060A68324320
:1012D0005A600D4B02689A4208D0B2F1804F05D097
:1012E0000A4B9A4202D00A4B9A4204D1496825F02F
:1012F00080031943916080F83D40002180F83C1044
:10130000084670BD022070BD002C01400004004062
:101310000008004010B5040003D094F83D0010B15F
:1013200007E0012010BD002084F83C00204600F0BA
:101330001EF8022084F83D00211D206800F01EFDEB
:10134000012084F8460084F83E0084F83F0084F8C9
:10135000400084F8410084F8420084F8430084F897
:10136000440084F8450084F83D00002010BD70471B
:1013700090F83D10012901D001207047022180F82A
:101380003D100168CA6842F00102CA6000680B495A
:10139000884208D0B0F1804F05D00949884202D078
:1013A0000849884204D1816801F00701062903D069
:1013B000016841F00101016000207047002C0140EC
:1013C000000400400008004070472DE9F041044649
:1013D0000068C66805694FF00007A90713D5B10773
:1013E00011D5F91E016101202077206880698007EE
:1013F000204602D0FFF7E8FF04E000F0A5F8204601
:1014000000F04AF92777680716D5700714D52168C8
:101410006FF004000861022020772068806910F4D2
:10142000407F204602D0FFF7CFFF04E000F08CF8A9
:10143000204600F031F92777280715D5300713D556
:1014400021686FF008000861042020772068C069D7
:101450008007204602D0FFF7B7FF04E000F074F8E1
:10146000204600F019F92777E80616D5F00614D5BE
:1014700021686FF010000861082020772068C0699B
:1014800010F4407F204602D0FFF79EFF04E000F0FA
:101490005BF8204600F000F92777E80708D0F0074E
:1014A00006D021686FF001000861204600F0F6F8D0
:1014B000280608D5300606D521686FF0800008613F
:1014C0002046FFF7F1FE680608D5700606D52168AC
:1014D0006FF040000861204600F0EAF8A8060AD53F
:1014E000B00608D521686FF0200008612046BDE8ED
:1014F000F041FFF7DABEBDE8F081000000B585B02D
:101500000021009101910291039100680B498842EA
:1015100011D10B48816941F00401816180696946FC
:1015200000F00400049040200090022001900390FD
:101530000448FFF775F905B000BD00000004004045
:101540000010024000080140704770B5044690F852
:101550003C0000260D4601280FD0012084F83C00F5
:101560006AB1042A1DD0082A2FD00C2A3FD00126A8
:10157000002084F83C00304670BD022070BD206819
:1015800000F038FC2068816941F008018161206821
:10159000816921F004018161206881692A69114310
:1015A00011E0206800F04EFC2068816941F4006180
:1015B00081612068816921F480618161206881698D
:1015C0002A6941EA02218161D2E7206800F066FCC5
:1015D0002068C16941F00801C1612068C16921F03A
:1015E0000401C1612068C1692A69114311E02068C2
:1015F00000F080FC2068C16941F40061C16120688D
:10160000C16921F48061C1612068C1692A6941EA28
:101610000221C161ACE710B5040003D094F83D008D
:1016200010B107E0012010BD002084F83C002046E6
:1016300000F01EF8022084F83D00211D206800F013
:101640009DFB012084F8460084F83E0084F83F00AA
:1016500084F8400084F8410084F8420084F8430094
:1016600084F8440084F8450084F83D00002010BD53
:1016700008B500680649884208D10648C16941F0AA
:101680000201C161C06900F00200009008BD0000C5
:101690000004004000100240704700000068034949
:1016A000884201D1FFF7AABA704700000008004045
:1016B0007047704770470000F8B501680446086835
:1016C000CA684B6910F00F0F4FF0000559D003F0B6
:1016D000010602F49077374365D0C10705D0D105E4
:1016E00003D5616C41F001016164410705D5D9075B
:1016F00003D0616C41F002016164810705D5D9070F
:1017000003D0616C41F004016164010707D502F068
:101710002001314303D0616C41F008016164616CC8
:1017200000293AD0800604D5900602D5204600F064
:1017300032FC20684069616CC0F38010090700D456
:1017400060B3204600F000FC20684069400621D5C7
:101750002068143050E8001F21F0400140E80012DA
:10176000002AF5D1E06BA8B16D494163E06BFFF74A
:101770000BF8002811D0E06B416B01B0BDE8F040E0
:10178000084783060FD593060DD52046BDE8F840DF
:1017900000F001BC2046FFF78DFFF8BD2046FFF7A3
:1017A00089FF6564F8BD266B2023012E7CD1C60617
:1017B0007AD5D60678D508684868009048694FF011
:1017C0000206400640D5E16B086840680004000C42
:1017D000E8D0A28D8242E5D9E085886920282DD005
:1017E00020680C3050E8001F21F4807140E800129E
:1017F000002AF5D12068143050E8001F21F00101C3
:1018000040E80012002AF5D12068143050E8001F8B
:1018100021F0400140E80012002AF5D184F842305E
:10182000256320680C3050E8001F21F0100140E8CB
:101830000012002AF5D1E06BFEF782FF6663A08DEF
:10184000E18D401A81B22AE0A08DE18D401A81B26B
:10185000E08D0028A6D00029A4D022680C3252E8DE
:10186000000F20F4907042E80007002FF5D12068A7
:10187000143050E8002F22F0010240E80027002F2A
:10188000F5D184F84230256320680C3050E8002FF1
:1018900022F0100240E80023002BF5D166632046B9
:1018A000FFF707FFF8BDFFE705062BD5150629D57D
:1018B00094F841002128F5D1A068B0F5805F01D1EE
:1018C0002069B0B1206A411C21622168007848601B
:1018D000E08C401E0004000CE084E3D12068C16865
:1018E00021F08001C1602068C16841F04001C16001
:1018F000D8E7206A0088C0F308004860206A801C8E
:101900002062E5E74006CDD55006CBD5CA68204613
:1019100022F04002CA6084F8413000F09CF8C1E730
:10192000391F000870B5040004D094F84100002568
:1019300010B106E0012070BD84F84050204600F050
:1019400023F8242084F841002068C16821F4005164
:10195000C160204600F080FB2068016921F49041BD
:1019600001612068416921F02A0141612068C16854
:1019700041F40051C1606564202084F8410084F87E
:1019800042006563002070BD70B586B000240094ED
:101990000194029403942B4E03682B4902200322E6
:1019A0002A4DB34221D18B6943F480438B618B690B
:1019B00003F4804304938B6943F004038B618969CA
:1019C000039201F0040104910102CDE9001069467F
:1019D0002846FEF725FF2815CDE90004694628466C
:1019E0000294FEF71DFF06B070BD194EB342FAD146
:1019F000CB6943F40033CB61CB6903F40033049328
:101A00008B6943F004038B618969039201F004013F
:101A100004910421CDE9001069462846FEF700FF35
:101A20000820CDE90004694628460294FEF7F8FE36
:101A3000002205212620FFF779F92620FFF768F913
:101A4000D1E70000003801400010024000080140CA
:101A50000044004070477047FEE700000F4810B593
:101A60000D4901600921416000214FF4802281600D
:101A7000C0E9031292004261017641768176C17617
:101A800001774177FEF784FD002803D0BDE81040C0
:101A9000FEF77DBC10BD000000640040D8020020AD
:101AA00010B596B01C2211496846FEF7D9FB0021FB
:101AB000684600F071FB0E4C0C491C2220601C3162
:101AC00007A8FEF7CDFB002107A800F065FB07493A
:101AD00060601C2238310EA8FEF7C2FB00210EA860
:101AE00000F05AFBA06016B010BD0000D42B000817
:101AF000000000202DE9F04186B000242748009422
:101B0000019402940394816941F01001816181691B
:101B100001F010010491816941F020018161816926
:101B200001F020010491816941F004018161816922
:101B300001F004010491816941F00801816180692B
:101B4000012200F00800164F55030490294638463C
:101B5000FEF756FFDFF84C80012210214046FEF7C9
:101B60004FFF0095022601250396CDE901546946F1
:101B70003846FEF755FECDE90054694640460294CA
:101B8000FEF74EFE1020CDE90005CDE9024669467C
:101B90004046FEF745FE06B0BDE8F0810010024069
:101BA00000100140000801400D4810B50B490160CC
:101BB0000C49416000214FF480428160C0E903126A
:101BC00041618161C1610162FEF726FF002803D0F7
:101BD000BDE81040FEF7DBBB10BD00000054004024
:101BE00000030020A086010010B58AB000240794ED
:101BF0001C2168460894FEF765FB16481449C0E9A5
:101C000000144FF6FF71C0E9024104618461FFF7DF
:101C100002FD08B1FEF7BBFB079407A90D48089425
:101C2000FFF744FB08B1FEF7B2FB6020CDE90004EA
:101C300002940022694607480494FFF786FC08B125
:101C4000FEF7A5FB0348FFF759FC0AB010BD0000E2
:101C500000040040540300200C4810B50A490160FC
:101C60004FF4E1314160002181600C22C160C0E984
:101C700004128161C161FFF755FE002803D0BDE861
:101C80001040FEF784BB10BD003801409C030020CB
:101C90000C4810B50A4901604FF4E1314160002160
:101CA00081600C22C160C0E904128161C161FFF74B
:101CB00039FE002803D0BDE81040FEF768BB10BD18
:101CC00000440040E4030020FEE7FEE7012000F0AE
:101CD00057FAFBE7012000F053FAFBE7012000F080
:101CE0004FFAFBE710B5502080F31188BFF34F8FF8
:101CF000BFF36F8F00F0A6FE18B104494FF080507B
:101D00000860002080F3118810BD000004ED00E0A1
:101D100030B58FB028216846FEF7D4FA14210AA8FE
:101D2000FEF7D0FA01210804CDE900100024029446
:101D300002250491CDE907504FF4E0100990684660
:101D4000FFF722F908B172B6FEE70F20CDE90A05C8
:101D50004FF48060CDE90C4002210AA80E94FFF7F1
:101D600017F8002801D072B6FEE70FB030BD7047FB
:101D70000148FFF72ABB00002C040020F0B50268E0
:101D8000194B1A4C1A4D4FF08047984205D0B84273
:101D900003D0A04201D0A84203D122F070064A68C5
:101DA0003243984205D0B84203D0A04201D0A842A5
:101DB00003D122F44074CA6822434C6922F08002A5
:101DC000224302608A68C2620A688262984201D134
:101DD00009690163012141610169C90703D00169F2
:101DE00021F001010161F0BD002C01400004004020
:101DF0000008004030B5036A026A22F00102026264
:101E00004268846924F073050C682C4323F00205B2
:101E10008B682B430A4DA8420BD123F00805CB68F1
:101E200022F440722B434D6923F0040315438A6961
:101E30002A434260846149684163036230BD000007
:101E4000002C014030B5026A036A23F010030362DC
:101E5000436884690D6824F4E64444EA05248D68E7
:101E600022F0200242EA05120B4DA8420ED1CD68A5
:101E700022F0800242EA05124D6923F4406343EAEE
:101E800085038D6922F0400243EA85034360846143
:101E900049688163026230BD002C014030B5036A9D
:101EA000026A22F4807202624268C46923F40073F9
:101EB00024F073050C682C438D6843EA05230C4D10
:101EC000A8420ED1CD6823F4006343EA05234D698F
:101ED00022F4405242EA05128D6923F4806342EAFB
:101EE00005124260C4614968C163036230BD0000ED
:101EF000002C014030B5046A026A22F4805202626A
:101F00004268C3690D6823F4E64343EA05238D68FC
:101F100024F4005444EA0534064DA84204D14D6926
:101F200022F4804242EA85124260C361496801643A
:101F3000046230BD002C014010B5406A0021C1850B
:101F4000C184FFF7B7FB10BD01680C3151E8002FC9
:101F500022F4907241E80023002BF5D1016814317E
:101F600051E8002F22F0010241E80023002BF5D1B7
:101F7000016B012909D101680C3151E8002F22F0D1
:101F8000100241E80023002BF5D1202180F84210F7
:101F900000210163704708B590F84210222901D052
:101FA000022008BD82684FF480539A4201D1016932
:101FB00021B1816A9A421BD04AB10AE00268816A63
:101FC0005268C2F308020A80816A891C08E002692B
:101FD00072B10268526802F07F020A70816A491C7D
:101FE0008162C18D491E0904090CC18503D01BE023
:101FF00002685268F1E70168CA6822F02002CA60EC
:102000000168CA6822F48072CA6001684A6922F0D5
:1020100001024A61202180F8421000214163026BD5
:10202000012A03D0FFF716FD002008BD01630168F7
:102030000C3151E8002F22F0100241E80023002B60
:10204000F5D101680A68D20602D50A68496800918C
:10205000818DFFF72EFBE7E770B504460068016944
:10206000E26821F44051114301612169A0680843ED
:10207000616908432168CA6841F20C639A430243CC
:10208000CA6020684169A26921F44071114341612D
:102090001E492068884202D1FEF740FF01E0FEF7AA
:1020A0002DFF00EBC00101EB00126068642180008D
:1020B000B2FBF0F3B3FBF1F36FF018067343B2FB1E
:1020C000F0F5B2FBF0F605EB8305322303EB0515C3
:1020D000B5FBF1F5B6FBF1F605F0F00505EB0615DD
:1020E000B2FBF0F6B2FBF0F0B0FBF1F06FF01802CB
:1020F000504306EB800003EB0010B0FBF1F02168C9
:1021000000F00F002844886070BD000000380140D6
:102110000148FFF7D1BA0000E40300200148FEF7B0
:1021200039B90000D8020020FEE70907090E00288F
:1021300004DB00F1E02080F80014704700F00F008D
:1021400000F1E02080F8141D7047FEF75FFDFFF7F7
:10215000DFFDFFF7CFFCFFF781FCFFF725FDFFF761
:1021600043FDFFF779FDFFF793FDFFF799FC00F0C2
:102170000EF8FEE701460020842900D0C81C7047F5
:1021800010B500B9012000F01FFB002010BD10B5F4
:1021900000F040FB002010BD7FB50D4604464169AC
:1021A000B0F9080081B1A16971B1FFF7E3FFD4E98B
:1021B00005128DE80700D4E900102B46226900F0D3
:1021C00016FC039004B070BDFFF7D4FF03A9CDE95E
:1021D0000001208A2B4682B2D4E9001000F0DAFB1D
:1021E000012801D00020EDE70398EBE72DE9F0414D
:1021F000184C0F460546E6682068001D00F01CFAE2
:1022000038B9206890F82C1001208840216981435A
:102210002161681C07D137B12168BDE8F0410E4843
:10222000091D00F04DBA20683544B542456021686B
:1022300005D2A06BBDE8F041091D00F029BA606B22
:10224000091D00F025FAA06A854200D2A562BDE80A
:10225000F08100001C000020500500202DE9F04115
:10226000054600F039FA2E4CA068401CA06020689A
:102270002C4F10B1606940B32DE02560A0680128A3
:1022800029D1002606EB860007EB800000F0F2F96A
:10229000761C072EF6D323488C3000F0EBF921484A
:1022A000A03000F0E7F91F48B43000F0E3F91D4812
:1022B000C83000F0DFF91B48DC3000F0DBF91948CA
:1022C0008C3060631430A06305E02068E96AC06A5E
:1022D000884200D82560606A401C6062E96A01207B
:1022E000226988401043206101EB810007EB8000E8
:1022F000291D00F0E5F900F00FFA606900280CD004
:102300002068E96AC06A884207D207494FF08050C6
:102310000860BFF34F8FBFF36F8FBDE8F0810000FF
:102320001C0000207404002004ED00E010B50446F9
:1023300090F8510058B101280CD002280FD050203D
:1023400080F31188BFF34F8FBFF36F8FFEE7206BD1
:1023500000F0F6F92046BDE8104000F0F1B910BDDC
:1023600010484FF40051420706D0C01D0D4920F01F
:102370000700411AC1F500510B4A00230144C2E98C
:1023800000030839183A21F0070111604B600B6017
:102390000B1AC0E9001393604FF000405360506186
:1023A000704700006405002070000020144E154C9A
:1023B000A6F1C8074FF08058DFF84C9012E000BF3C
:1023C00000F08AF9F068C568281D00F035F9A068AA
:1023D000401EA0606068401E606000F09DF92846C5
:1023E000FFF7A4FF60680028EAD138680128F9D90E
:1023F000C9F80080BFF34F8FBFF36F8FF2E7000083
:102400003C0500201C00002004ED00E02DE9F04711
:102410009A46DDE9098481466FF00303206B03EBE4
:1024200082021044089E20F00707780707D050204A
:1024300080F31188BFF34F8FBFF36F8FFEE7002546
:1024400061B1002023180A5C83F834200A5C12B1C1
:10245000401C1028F6D384F8435001E084F834502F
:10246000072E00D30626E662C4E91165201D00F0A0
:102470000CF904F1180000F008F92461C6F1070016
:102480006462A061E56484F850505246494638467B
:1024900000F0C0F82060B8F1000F01D0C8F800408B
:1024A000BDE8F08730B5114900E011460A68824264
:1024B000FBD34B685C18844203D1406818444860E1
:1024C000084643681C18944209D1084C183C2468FB
:1024D000A24209D052681A4442600A681268026037
:1024E000814200D0086030BD0460F9E77000002030
:1024F0000648416B096829B1416BC968C9684968D8
:10250000816270474FF0FF31FAE700001C000020A5
:1025100008484068401C4FF0500080F3118804D0F8
:10252000BFF34F8FBFF36F8FFEE7BFF34F8FBFF344
:102530006F8FFEE7780000202DE9F0410546002767
:1025400000F09EF9324E306808B9FFF709FF706954
:1025500005424ED1C5B3083568070ED005F0070017
:10256000C0F108000544680707D0502080F31188A7
:10257000BFF34F8FBFF36F8FFEE72DB370688542B7
:1025800037D82348183001460C6801E020460C4635
:102590006168A94202D221680029F7D131688C42D2
:1025A00027D007682168016060680837411B10293F
:1025B0000FD96019420708D0502080F31188BFF36B
:1025C0004F8FBFF36F8FFEE713E041606560FFF749
:1025D00069FF61687068401A7060B268904200D20A
:1025E000B060706901430020C4E90001F068401C3C
:1025F000F06000F08DFA780707D0502080F3118842
:10260000BFF34F8FBFF36F8FFEE73846BDE8F08111
:102610005800002010B5031F4FF080741C601B1F72
:1026200021F001011960191F024B0B601439403869
:102630000A6010BD11250008D0E9013201699A60D5
:10264000D0E901235A604A68824201D182684A6017
:10265000002202610868401E086008687047000098
:10266000034B036003F15400086080201060704742
:102670008400002000F108014FF0FF32C0E9011290
:10268000C160016100210160704700210161704754
:1026900030B50B685A1C02D000F1080202E0026952
:1026A00004E02246546825689D42FAD953684B607D
:1026B00099608A60516008610168491C016030BD01
:1026C00042684A6093688B609368596091600861C2
:1026D0000168491C01607047502080F31188BFF3E6
:1026E0004F8FBFF36F8F0A494868401C486001282C
:1026F0000CD10848006810F0FF0F07D0502080F37D
:102700001188BFF34F8FBFF36F8FFEE77047000054
:102710007800002004ED00E00849486828B1401E18
:10272000486001D180F311887047502080F31188F0
:10273000BFF34F8FBFF36F8FFEE7000078000020DC
:1027400070B500282AD0164DA0F1080460686969A8
:10275000084207D1502080F31188BFF34F8FBFF399
:102760006F8FFEE722683AB1502080F31188BFF3E3
:102770004F8FBFF36F8FFEE78843606000F080F8F3
:1027800060686968084468602046FFF78BFE286926
:10279000401C2861BDE8704000F0BAB970BD00006F
:1027A000580000204FF0E0200021016181610549BF
:1027B0004FF47A720968B1FBF2F1491E41610721B9
:1027C000016170471800002010B5020014D00F48B6
:1027D000006B38B1502080F31188BFF34F8FBFF3E7
:1027E0006F8FFEE700F04CF800211046FFF7FEFC6B
:1027F00000F08EF9002807D105494FF0805008609D
:10280000BFF34F8FBFF36F8F10BD00001C0000207F
:1028100004ED00E010B586B00024039405AA04A9D5
:1028200003A80494FFF71CFFDDE903010094CDE940
:10283000011000230EA11048059A00F0D8F80F49A6
:102840000028C86211D0502080F31188BFF34F8F49
:10285000BFF36F8F4FF0FF30886201204861CC607A
:1028600006B0BDE8104000F041B806B010BD000051
:1028700049444C4500000000AD2300081C00002026
:102880000248016B491C0163704700001C000020D6
:102890001448016B11B10121C16170470021C16170
:1028A0000169B1FA81F1C1F11F0101EB81020E4909
:1028B00051F822306BB101EB820101F108034A6843
:1028C00052684A609A4201D152684A60D1680160F8
:1028D0007047502080F31188BFF34F8FBFF36F8F85
:1028E000FEE700001C000020740400201CB52649EF
:1028F00008780190FF20087008788DF800009DF896
:1029000000009DF8002000F0F000904207D0502019
:1029100080F31188BFF34F8FBFF36F8FFEE79DF8F1
:1029200000001A4C00F0500020700720A06005E065
:102930009DF8002052008DF80020401E9DF80020D8
:102940001206F5D4A060032807D0502080F3118828
:10295000BFF34F8FBFF36F8FFEE74FF44070A0605F
:10296000019808700A48016841F47001016001682B
:1029700041F070410160FFF715FF00206060FDF736
:1029800015FC00201CBD000000E400E078000020E1
:1029900020ED00E02DE9FF5F8346DDE90E879946D3
:1029A00016468A469000FFF7C7FD05001CD054204C
:1029B000FFF7C2FD040014D00020256384F8510005
:1029C000CDE90240CDE900874B4632465146584694
:1029D000FFF71CFD2046FFF741FC012004B0BDE8D5
:1029E000F09F2846FFF7ACFE4FF0FF30F6E7F0B55A
:1029F00085B0DDE90B640A9DA6B1DCB154270097D0
:102A00002663022684F85160002604AFCDE9024611
:102A1000CDE90057FFF7FAFC2046FFF71FFC0498AA
:102A200005B0F0BD502080F31188BFF34F8FBFF386
:102A30006F8FFEE7502080F31188BFF34F8FBFF3F5
:102A40006F8FFEE72DE9F0412F4C0026206B28B157
:102A5000A069401CA0613046BDE8F081E5686D1CAE
:102A6000E56013D1606B006838B1502080F31188A5
:102A7000BFF34F8FBFF36F8FFEE7606BA16B616396
:102A8000A063206A401C2062FFF732FDA06ADFF8D5
:102A90007C80854209D3606B0068A0B1606BC06820
:102AA000C7687868854211D2A0622068C06A00EBCE
:102AB000800158F82100012800D90126E06900288A
:102AC000C9D00126C7E74FF0FF30EDE7381DFFF70B
:102AD000B3FDB86A18B107F11800FFF7ADFDF96A48
:102AE0000120226988401043206101EB810108EB3D
:102AF0008100391DFFF7E4FDF86A2168C96A884240
:102B0000C9D30126C7E700001C0000207404002080
:102B10002DE9F0472C4D00242746286B38B1FFF7EC
:102B2000DBFD286B401E2863286B40B146E0502037
:102B300080F31188BFF34F8FBFF36F8FFEE7A96853
:102B4000224E0120D1B3A6F1B40980463068E8B125
:102B5000F068C46804F11800FFF76EFD201DFFF750
:102B60006BFDE06A2A6908FA00F11143296100EB64
:102B7000800109EB8100211DFFF7A2FDE06A2968B1
:102B8000C96A8842E2D3C5F81C80DFE70CB1FFF7C1
:102B9000AFFCAC6944B14646FFF754FF00B1EE61AB
:102BA000641EF9D10020A861E86938B108490127FD
:102BB00038070860BFF34F8FBFF36F8FFFF7ACFD8F
:102BC0003846BDE8F08700001C00002028050020E2
:102BD00004ED00E06C2C0008DD1C00080000000083
:102BE00000000000000100000000000000000000E4
:102BF000542C0008CD1C000801000000000000005B
:102C0000800000000000000000000000602C0008B0
:102C1000D51C0008000000000000000000020000B9
:102C20000000000000000000010202030405060786
:102C300008090A0B0C0D0E0F101000000000000018
:102C40000000010203040607080900000000010259
:102C50000304000043414E5F5461736B00000000A9
:102C60004D5154545F5461736B00000053656E7393
:102C70006F725F5461736B00982C00080000002095
:102C800084000000280100081C2D0008840000209A
:102C9000442B000044010008000000000000000078
:102CA0000000000001000000100000000000000013
:102CB00000127A0000000000000000000000000088
:102CC0000000000000000000000000000000000004
:102CD00000000000000000000000000000000000F4
:102CE00000000000000000000000000000000000E4
:102CF00000000000000000000000000000000000D4
:102D000000000000000000000000000000000000C3
:0C2D100000000000AAAAAAAA000000000F
:04000005080000ED02
:00000001FF
