:020000040800F2
:100000000831002041020008173C00086333000853
:10001000153C0008E7140008154700080000000020
:10002000000000000000000000000000A90100081E
:10003000E914000800000000ED0100082942000852
:100040005B0200085B0200085B0200085B0200081C
:100050005B0200085B0200085B0200085B0200080C
:100060005B0200085B0200085B0200085B020008FC
:100070005B0200085B0200085B0200085B020008EC
:100080005B0200085B0200085B0200085B020008DC
:10009000094700085B0200085B0200085B020008D9
:1000A0005B0200085B0200085B0200085B020008BC
:1000B0005B0200085B020008B54200085B02000812
:1000C0005B0200085B0200085B0200085B0200089C
:1000D0005B0200085B020008FD4600085B020008A6
:1000E0005B0200085B0200085B02000800F002F8F7
:1000F00000F04AF80AA090E8000C82448344AAF178
:100100000107DA4501D100F03FF8AFF2090EBAE875
:100110000F0013F0010F18BFFB1A43F0010318473B
:10012000286E0000486E0000103A24BF78C878C1DD
:10013000FAD8520724BF30C830C144BF04680C60ED
:10014000704700000023002400250026103A28BF35
:1001500078C1FBD8520728BF30C148BF0B60704739
:10016000662905F07883732900F0BB84002070476E
:100170001FB500F0BBFC04000020002105F038F999
:10018000E0601FBD10B510BD00F0B0FD1146FFF7D7
:10019000EFFF04F003FB00F0CEFD03B4FFF7F2FF26
:1001A00003BC00F0D1FD0000224B19680868B0E8DC
:1001B000F00F80F30988BFF36F8F4FF0000080F3DA
:1001C00011884EF00D0E70470000000006480068D0
:1001D000006880F3088862B661B6BFF34F8FBFF343
:1001E0006F8F00DF00BF00BF08ED00E0EFF3098074
:1001F000BFF36F8F0F4B1A6820E9F00F106008B53E
:100200004FF0500080F31188BFF34F8FBFF36F8F13
:1002100004F04CFF4FF0000080F31188BDE8084067
:1002200019680868B0E8F00F80F30988BFF36F8F92
:10023000704700BF38000020EFF3058070470000D2
:100240000948804709480047FEE7FEE7FEE7FEE76A
:10025000FEE7FEE7FEE7FEE7FEE7FEE704480549A6
:10026000054A064B70470000B3420008ED00000845
:10027000082B002008310020082D0020082D002028
:100280000FB41CB5084B06AA7B446946009005983C
:1002900000F0FDFB04460020694600F00BFC204600
:1002A0001CBC5DF814FB00002908000070B50C466A
:1002B0000546012A05D02878800600D5EA69002382
:1002C00002E0012305E05B1C934202D2E05C0028BF
:1002D000F9D1A869E618C01AA861286A18442862EA
:1002E0002846AFF3008004E0D5E9012114F8010BA2
:1002F0009047B442F8D32846AFF3008070BD0000A9
:100300002DE9F05F894604464FF0000ADFF874B12A
:10031000FB44C0F820A02046E1688847002874D03C
:10032000252806D0D4E901219047206A401C20628C
:10033000F1E700265F462046E16888472028054609
:1003400007DB312D05D2781910F8200C08B10643CF
:10035000F1E7B00701D526F00406C4F81CA0002779
:10036000C4F818A02A2D09D0284604F0F8F938B3AB
:1003700004EB8708303DC8F8185019E059F8041B01
:10038000204604EB87029161E1688847012F05460A
:1003900018D1E069002820DA26F020061DE0D8F800
:1003A000180000EB800005EB40003038C8F818005A
:1003B0002046E1688847054604F0D1F90028EED1CF
:1003C000012F0AD02E2D08D12046E16888477F1CD6
:1003D0000546022F46F02006C4DBA069002803DA98
:1003E000404246F00106A061F00701D026F0100659
:1003F0006C2D0BD0682D09D04C2D39D06A2D35D0FD
:10040000742D35D07A2D33D016E038E0E1682F46D0
:1004100020468847B842054609D16C2F26D04FF4B4
:100420008060E168064320468847054604E06C2F5B
:100430001AD04FF4807006430DB3A5F1410019287E
:1004400002D8203546F400664A46294620462660F2
:100450004E46FFF785FE80B101280BD0F61D26F031
:10046000070000F1080956E74020E4E78020D8E7BC
:100470000020D6E706F104094DE7284652E7206A36
:10048000BDE8F09F2E6B000030B505460B462A46AE
:1004900013F8014B12F8010B08B1A042F8D01CB1BF
:1004A000002802D06D1CF1E7284630BD10B5431C72
:1004B00002E010F8011B71B18107FAD14FF001324F
:1004C00002C88C1A8C4314EAC211F9D0C01A0A0669
:1004D00003D0C01E10BDC01A10BD0A0401D0801E7A
:1004E00010BD0902FCD0401E10BD10B5203AC0F06E
:1004F0000B80B1E81850203AA0E81850B1E8185025
:10050000A0E81850BFF4F5AF5FEA027C24BFB1E861
:100510001850A0E8185044BF18C918C0BDE81040D2
:100520005FEA827C24BF51F8043B40F8043B08BFDB
:100530007047D20728BF31F8023B48BF11F8012BA2
:1005400028BF20F8023B48BF00F8012B70474FF04E
:1005500000020429C0F0128010F0030C00F01B8090
:10056000CCF1040CBCF1020F18BF00F8012BA8BF9E
:1005700020F8022BA1EB0C0100F00DB85FEAC17C62
:1005800024BF00F8012B00F8012B48BF00F8012B15
:1005900070474FF0000200B5134694469646203946
:1005A00022BFA0E80C50A0E80C50B1F12001BFF42C
:1005B000F7AF090728BFA0E80C5048BF0CC05DF892
:1005C00004EB890028BF40F8042B08BF704748BFE0
:1005D00020F8022B11F0804F18BF00F8012B704754
:1005E0004FF0013C50F8042B51F8043B9A4221D1C2
:1005F000A2EB0C03934313EACC1317D150F8042B4E
:1006000051F8043B9A4215D1A2EB0C03934313EA31
:10061000CC130BD150F8042B51F8043B9A4209D16A
:10062000A2EB0C03934313EACC13DBD04FF0000092
:10063000704700BFD01A01BAB1FA81F101F0180178
:1006400022FA01F0CB40C1F12001DBB2C0B2C01AE6
:100650002CFA01F3D11A914311EAC311E6D1704784
:1006600070477047704770472DE9FF4F0C461E4694
:100670004FF0FF378BB0D2E90001DDF860800A90BF
:100680008A46C1F30A5505B93D46002108464FF098
:100690000000BAF1000F00F4400005DA00EB800022
:1006A0004FF4400101EA50004FEA9059B9F1010FAF
:1006B00000DDB9460A9850EA4A000ED044F61050C0
:1006C000A5F2FF3545432F14B8F1000F1ED0754237
:1006D000291E1EDDC9F100021CE0B8F1010F4FF028
:1006E000000001D0302103E0F24305E02154401C1A
:1006F000B042FBDB30460022002121540B99C1F8A7
:100700000880C1E900200FB0BDE8F08FBD1B6D1C53
:10071000DEE74A4600DA694206A800F071FA06AB45
:1007200093E8070003AB83E8070050460A9900F0FE
:1007300012FB8DE80700A0F500501F3800900398C9
:10074000002D0ADD42F21F014A460844002303A996
:100750000390684600F07BFD09E0A0F500504A4692
:100760001F38002303A90390684600F085FD8DE83B
:1007700007000004000C03D04FF0FF30410800E0F8
:100780001046B8F1000F03D00022009215461EE07B
:10079000751E05D400F0AEF9303262556D1EF9D5E4
:1007A000B3460122084302D000227F1C04E02078D7
:1007B000302801D100227F1E002A099784D01DE035
:1007C000112D07DA00F096F9303262556D1C50EAAF
:1007D0000102F5D1084302D00098C8B10EE0002113
:1007E000681E05E0235C625C63542254401E491C71
:1007F0008142F7DBAB46A81B401E0990002004F89D
:100800000B000B98099AC0F80880C0E9002B7AE722
:1008100011264FF0000857E72DE9F04F88460446AF
:10082000D21D22F0070191B0D1E90001CDE90A0102
:1008300003F071FF02460B98C00F01D02D2007E096
:100840002068810701D52B2002E0202101EAC000A9
:10085000032A099001D0072A05DB034641462046BA
:1008600000F08EF90BE12078800601D5E06900E008
:100870000620B8F1650F814606D0B8F1660F18D092
:10088000B8F1670F70D131E00020B9F1110F00907D
:1008900001DB112301E009F101030AAA01A90CA857
:1008A000FFF7E2FEDDE90C70002609F10105834641
:1008B00047E001204B4600904FF000470AAA01A9EB
:1008C0000CA8FFF7D1FEDDE90DB00C995D460026BE
:1008D00010B909F101000D18B9EB050003D4C0F1FE
:1008E000FF3609F10105A5EB09002BE0B9F1010F75
:1008F00001DA4FF001090020B9F1110F00904846CC
:1009000001DD112300E003460AAA01A90CA8FFF7A4
:10091000ABFEDDE90C704D460026834620780007CB
:100920000AD4AB4500DA5D4601A8012D04DD41196A
:1009300011F8011C302907D04F4502DA17F1040FD6
:1009400004DA012082460FE06D1EEEE7002F02DC84
:10095000ED1B3E4403E0781CA84200DD7D1CB81B63
:1009600000F1010A4FF000472078000703D4AA45A0
:1009700001DB4FF0FF3A0021B7F1004F0DF14308C2
:100980008DF8431024D002202B23002F01DA7F4260
:100990002D230A21021EA0F1010000DC5FB197FBAC
:1009A000F1FC97FBF1F201FB1C7C17460CF1300CBB
:1009B00008F801CDEEE7A8F10100037021880905D0
:1009C00001D5452100E06521A0F1010800F8011CD6
:1009D00009980FA9A1EB0807FF1D00B101204119DB
:1009E00001EBEA70A1693844081A401EA061207822
:1009F000C00602D42046AFF30080099828B1D4E99C
:100A000001219047206A401C20622078C00622D530
:100A10002046AFF300801EE0002E04DBB34502DD6C
:100A200001A8805D00E03020D4E901219047206AD0
:100A3000401C2062761CAAF101005FEA000A0AD17C
:100A400000F054F8C0680168405CD4E90121904787
:100A5000206A401C2062281EA5F10105DCDC07E0AD
:100A6000D4E9012118F8010B9047206A401C20624C
:100A7000381EA7F10107F3DC2046AFF30080032006
:100A800011B041E601694A1C02610878704700B55F
:100A90008FB0CDE901310021059105497944CDE9B7
:100AA000031011466846FFF72BFC0FB000BD000095
:100AB000E5FFFFFF0A6802F8010B0A60704710B5F6
:100AC000436913B1AFF3008001E0FFF7EFFB0120B2
:100AD00010BD127800F124010A7000224A70012230
:100AE000EDE711684FF0FF32E9E70000004870477A
:100AF000C42A002030B5B0F10A024FEA900E71F11D
:100B000000034EEA817EB0EB0E0061EB91014FEAEB
:100B1000101E4EEA017E10EB0E0041EB11114FEA60
:100B2000102E4EEA016E10EB0E0041EB11214FEA40
:100B3000104E4EEA014E10EB0E0041EB11414018F1
:100B400041F100014FEAD00040EA41704FEAD10183
:100B500010EB80054FEA810444EA907444EB0104F1
:100B60006D1944EB0404521BA3414FF0000348BF2E
:100B70000A3200D530BD401C41F1000130BD0000FB
:100B80002DE9F0411F46044603260168072A01F4B7
:100B9000006004DB08B116A505E016A503E008B166
:100BA00015A500E015A521F010002060A069C01E69
:100BB000A0610FB1401EA0612046AFF300804FB18D
:100BC000D4E9012138469047206A401C2062C01CAD
:100BD000206206E0206AFAE7D4E9012115F8010B4A
:100BE0009047761EF8D22046AFF30080BDE8F08132
:100BF0004E414E006E616E00494E4600696E6600C1
:100C00002DE9F047814616468AB0354878440DC82C
:100C10008DE80D0032487844801C03AC0DC884E890
:100C20000D0041F69B300844372190FBF1F290FB18
:100C3000F1F5A5F1800501FB12041B3C02D56442CD
:100C4000012000E00020DFF898A080460027FA4449
:100C5000AAF1BE0A0EE0E0070AD03246684607EB6A
:100C6000470101230AEB810100F006FB8DE8070034
:100C700064107F1C002CEED1194F7F44AE3F19E069
:100C8000E80715D007EB04100DF1180A90E80E00E4
:100C90008AE80E00C068F04201D1981908903246E7
:100CA000012306A903A800F0E7FA03AB83E80700D5
:100CB0006D10641C002DE3D14FF0010332466946EC
:100CC000B8F1000F03A802D000F0C1FA01E000F073
:100CD000D3FAC9E90001C9F808200AB0BDE8F087D5
:100CE000C062000000487047A42A00207546FFF744
:100CF000F9FFAE4605006946534620F007008546D9
:100D000018B020B5FFF7AAFABDE820404FF0000662
:100D10004FF000074FF000084FF0000B21F00701E3
:100D2000AC46ACE8C009ACE8C009ACE8C009ACE826
:100D3000C0098D46704710B50446AFF300802046C9
:100D4000BDE81040FFF729BA01491820ABBEFEE705
:100D50002600020070475FEA400C08BF91F0000FC8
:100D60004FEA8C234FEAC12243EA51514FEA1C500B
:100D700018BF00F5F0404FEA300018BF41F00041C5
:100D80005FEA6C5C00F02980BCF1FF3F08BF40F0D7
:100D900080407047130C06BF12044FF0100C4FF048
:100DA000000C130E04BF12020CF1080C130F04BF49
:100DB00012010CF1040C930F04BF92000CF1020C11
:100DC000D30F04BF52000CF1010C11464FF000028A
:100DD000A0F11F00A0EB0C00704711F0004F08BFFE
:100DE000704731F000413FF4D5AF0B0C06BF09044A
:100DF0004FF0100C4FF0000C0B0E04BF09020CF169
:100E0000080C0B0F04BF09010CF1040C8B0F04BF7D
:100E100089000CF1020CCB0F04BF49000CF1010C4E
:100E2000CCF12003A0EB0C0022FA03F302FA0CF23F
:100E300041EA030100F10100704720F07F4C80EA95
:100E4000030023F07F47ACEB070303F57C5300F06E
:100E5000004003F1FF032DE980494FEA154B09B427
:100E60004FEA144325EA0B4E24EA03480FF2042606
:100E700006EB132749083E785FEA320203FB066758
:100E8000C7F5000707FB06F64FEA54374FEAD64688
:100E900006F1020607FB066CCCF1005C4FEA1C472A
:100EA0002CEA074C07FB06F40CFB06F504EB154691
:100EB0004FEA961634BF00204FF000404FEAD1377A
:100EC00006FB07FC4FEA1C4C0CFB0BF7D21B03FB89
:100ED0000CF761EB07010CFB0EF7B0EB074072EB70
:100EE00017420CFB08F734BFA2EB0742B2EB0742F4
:100EF00061EB17414FEA0C444FEA910706FB07FCF0
:100F00004FEA1C4C0CFB0BF7B0EBC74072EB5732AF
:100F100003FB0CF734BFA2EBC742B2EBC74261EB55
:100F200057310CFB0EF7B0EBC70072EB57720CFB9E
:100F300008F734BFA2EBC702B2EBC70261EB5771EF
:100F4000039F4FEA816141EA921104EBCC044FEA1E
:100F5000D1374FEA826206FB07FC42EA90124FEA61
:100F600080604FEA1C4C0CFB0BF7D21B03FB0CF709
:100F700061EB07010CFB0EF7B0EB074072EB174279
:100F80000CFB08F734BFA2EB0742B2EB074261EB60
:100F900017414FEA8C554FEA910704EB9C2406FB5E
:100FA00007FC4FEA1C4C0CFB0BF7B0EBC74072EB95
:100FB000573203FB0CF734BFA2EBC742B2EBC74278
:100FC00061EB57310CFB0EF7B0EBC70072EB5772B9
:100FD0000CFB08F734BFA2EBC702B2EBC70261EB10
:100FE000577115EB4C254FEA816141EA92114FEAA6
:100FF00082624FEAD13742EA901206FB07FC44F1C5
:1010000000044FEA80604FEA1C4C0CFB0BF7D21B2C
:1010100003FB0CF761EB07010CFB0EF7B0EB07408D
:1010200072EB17420CFB08F734BFA2EB0742B2EB9E
:10103000074261EB174115EB1C154FEA813141EA7C
:1010400092414FEA823242EA90424FEA80304FEAC0
:101050000C7644F1000448EA03434EEA0B484FF093
:10106000000EB2EB080C71EB030724BF6246394651
:101070004EEB0E0E4FF0000B0018524149414BEB66
:101080000B0BB2EB080C71EB03077BF1000B24BFD9
:10109000624639464EEB0E0E4FF0000B00185241DF
:1010A00049414BEB0B0BB2EB080C71EB03077BF1E7
:1010B000000B24BF624639464EEB0E0E51EA020782
:1010C00018BF46F0010616EB0E7655F1000254F1FA
:1010D000000103D5BDE88901BDE80088BDE88901AC
:1010E000BDE80048B619524141EB0101A3F10103EB
:1010F000704780807F7E7D7C7B7A79787776767585
:101100007473727171706F6E6E6D6C6C6B6A6A69FC
:101110006868676666656464636362616160605F96
:101120005F5E5E5D5D5C5C5B5B5A5A59595858570F
:101130005756565555555454535352525251515077
:1011400050504F4F4F4E4E4D4D4D4C4C4C4B4B4BCA
:101150004A4A4A4949494848484747474746464610
:10116000454545444444444343434342424242414B
:101170004141002B9C4630D477002BD01CB54FEA60
:10118000370703B44FF010004FF01001BAF1000F11
:1011900006D0BCF1000FDCBF40F0080040F00801B1
:1011A0004FF000000FBCBDE810400BF1010BBBF18C
:1011B000010F08BF5FEA170722BF12F1010211F108
:1011C00001014FF0004143F1000300F0004043EA09
:1011D00000007047F9D35708D0E746EA064613F1F6
:1011E000400F4FEA16461FDD13F1200FDFBF1643F5
:1011F0000A46002120335B42BED0C3F1200746EAF5
:10120000064602FA07F74FEA164646EA0706C3F112
:10121000200722FA03F201FA07F721FA03F14FF04F
:10122000000342EA0702A7E746EA020646EA064644
:101230004FEA164646EA0106BCBF46EA0646360CA9
:101240004FF000034FF000024FF0000194E72DE94A
:10125000804C9A46934670B491E8380007C831EA4A
:10126000400C48BF34EA430C03D5FFF7E6FDFFF717
:1012700080FFF0BCBDE8008C2DE9804C9A46934677
:1012800070B491E8380007C810F0804F08BF13F021
:10129000804F03D100F005F8FFF76BFFF0BCBDE80D
:1012A000008C20F07F4780EA030023F07F4C07EB9F
:1012B0000C03A3F57C5300F00040A3F1FE0392F071
:1012C000000F00F0B38095F0000F00F077802DE95B
:1012D00001494FEA11404FEA144621EA004800FB59
:1012E00006FC24EA064708FB06F607FB08F800FBA5
:1012F00007F718EB06484CEB164C4FEA124B18EB6D
:1013000007484FEA15464CEB174022EA0B4E0BFB01
:1013100006FC25EA06470EFB06F607FB0EFE0BFB56
:1013200007F71EEB064E4CEB164C4FF000061EEB7B
:10133000074E4CEB174B18EB0B0840F1000018EB75
:101340000E0B58EB000840F100008F1A4FF000011F
:101350003CBFC943661B14BFB5EB040C00213CBF66
:10136000C943F61B4FEA17444EEA8E0E27EA04459E
:101370004FEA1C4704FB07622CEA074C05FB07F702
:101380000CFB05F604FB0CFC16EB074642EB174280
:1013900016EB0C4642EB1C421BEB060658EB020216
:1013A000414146EA9E0601D5BDE80189B619524180
:1013B00041EB0101A3F10103BDE801894FEA1445A6
:1013C0004FEA114724EA054621EA074C05FB07F4DA
:1013D00006FB07F70CFB06F105FB0CFC11EB0741C4
:1013E00044EB17444FEA124711EB0C4144EB1C4409
:1013F00022EA074C05FB07F206FB07F70CFB06F693
:1014000005FB0CFC16EB074642EB174216EB0C46AD
:1014100042EB1C456A1854F1000148BF7047B619E9
:10142000524141EB0101A3F10103704795F0000F18
:1014300037D04FEA11424FEA144721EA024624EA24
:10144000074C02FB07F106FB07F70CFB06F402FB57
:101450000CFC14EB074441EB17414FEA154714EB22
:101460000C4441EB1C4125EA074C02FB07F506FB47
:1014700007F70CFB06F602FB0CFC16EB074645EBE8
:10148000174516EB0C4645EB1C42121951F10001B1
:1014900048BF7047B619524141EB0101A3F1010366
:1014A00070474FEA14454FEA114724EA054621EAFE
:1014B000074C05FB07F106FB07F70CFB06F24FF0A4
:1014C000000605FB0CFC12EB074241EB174112EB47
:1014D0000C4251EB1C4148BF7047921841EB01018F
:1014E000A3F101037047FEE77047000010B51CA090
:1014F00002F05EFD4FF4FA6000F09CFB20A000F0CB
:1015000091F84FF4FA74204600F094FB20A000F00C
:1015100089F8200100F08EFB24A000F083F820461B
:1015200000F088FB264800F07DF8600000F082FBA8
:1015300024A000F077F840F6B83000F07BFB2AA03A
:1015400000F070F8204600F075FB01222D492E486E
:1015500001F062FEBDE810402CA002F029BD0000A1
:101560000D0A5B53595354454D5D20574946492058
:10157000434F4E4E454354494E472E2E2E0D0A00E2
:1015800041542B43574D4F44453D310D0A00000057
:1015900041542B43574A41503D22636E6D222C2209
:1015A0003132333435363738220D0A0041542B4D51
:1015B000515454434C45414E3D300D0A000000004B
:1015C000E86E000841542B4D515454434F4E4E3D4C
:1015D000302C2262656D66612E636F6D222C393569
:1015E00030312C310D0A000041542B4D51545453CD
:1015F00055423D302C22706F776572303032222C8C
:10160000300D0A0000000020240900205B535953CC
:1016100054454D5D204D515454205245414459216B
:101620000D0A000038B504460848006801684068A3
:1016300000902046FEF73AFF01B02146BDE8304059
:1016400082B24FF47A73014801F03ABE24090020B7
:1016500072B6FEE7F0B590F820500468A468012D3A
:1016600005D0022D03D0416A41F4802157E014F0E7
:10167000406F01D1E5004FD5C4F301640125A540B9
:101680001D608D684FF4C0739DB1CE6835434E68C0
:1016900045EAC605066803EB0417F5514FF4C27519
:1016A000076805EB04150E697E51097D012905D0F7
:1016B00009E00E88CD6845EA4655EBE701684E59CA
:1016C00046F480764E511179D579567941EA056113
:1016D00095792D0445EA062529434FF4C676056819
:1016E00006EB0416A9511178D57841EA0561957881
:1016F00052782D0445EA022211434FF4C475026862
:1017000005EB04155151006803EB0411425842F0F7
:10171000010242500020F0BD416A41F400114162D3
:101720000120F0BD70470246002092F820100129E8
:1017300001D002290CD111688A68520100D501201C
:101740008A68120100D5401C8968C90000D5401C78
:1017500070472DE9F05F0546006800244669D0F81F
:1017600004908768D0F80CB0D0F810A0D0F818809A
:10177000F10748D0F90714D001218160B80703D5DB
:10178000284600F0E2F90CE0780702D54FF4006437
:1017900007E0380702D54FF4805402E0284600F0F5
:1017A000D3F9F80516D529684FF480708860B8051C
:1017B00003D5284600F0CBF90CE0780502D544F4B7
:1017C000005407E0380502D544F4804402E028467E
:1017D00000F0BCF9F80316D529684FF48030886012
:1017E000B80303D5284600F0B4F90CE0780302D51D
:1017F00044F4004407E0380302D544F4803402E0A6
:10180000284600F0A5F9300707D55FEACB6004D57C
:101810002968102044F40074C86070074FF008076E
:1018200007D55FEA0B7004D52868C760284600F02A
:1018300059F9B00706D52868C068800702D0284645
:1018400000F051F9700607D55FEACA6004D529682F
:10185000102044F480640861B00607D55FEA0A707E
:1018600004D528680761284600F03EF9F00606D541
:1018700028680069800702D0284600F036F9B003D6
:1018800008D55FEAC96005D5296810204860284658
:1018900000F02CF9F00307D55FEA097004D5286839
:1018A0004760284600F056F9300446D55FEA497093
:1018B00040D5F00504D55FEAC87001D044F00104BA
:1018C000B00504D55FEA887001D544F002047005C4
:1018D00004D55FEA487001D544F00404300529D5E9
:1018E00018F0700F26D008F07000402815D006DCE4
:1018F000102809D020280AD0302816D10AE0502814
:101900000ED0602811D10EE044F008040DE044F040
:1019100010040AE044F0200407E044F0400404E02E
:1019200044F0800401E044F480742868816921F067
:1019300070018161296804204860002C05D0686A24
:10194000204368622846FFF7EDFEBDE8F09F70B5C2
:10195000040003D094F8200010B104E0012070BD11
:10196000204600F081F82068016841F00101016023
:1019700000F068FA0546052604E000F063FA401B13
:101980000A2811D820684068C007F6D0206801688E
:1019900021F00201016000F055FA05460BE000F06D
:1019A00051FA401B0A2806D9606A40F40030606290
:1019B00084F82060D2E7206840688007EFD4207E5A
:1019C0000128206801683DD021F080010160607E1F
:1019D00001282068016838D021F040010160A07E14
:1019E00001282068016833D021F020010160E07EE9
:1019F0000128206801682ED041F010010160207F8D
:101A000001282068016829D021F008010160607F69
:101A100001282068016824D021F004010160D4E984
:101A200002010843D4E90412114308436168491EC6
:101A300008432168C86100206062012084F820000A
:101A4000002070BD41F08001C0E741F04001C5E7D2
:101A500041F02001CAE721F01001CFE741F0080171
:101A6000D4E741F00401D9E710B586B00021009118
:101A70000191029103910068174988422AD11748C1
:101A8000C16941F00071C161C16901F00071049147
:101A9000816941F0040181618069114C00F004000A
:101AA00004904FF4006000906946204600F0D4F89E
:101AB000A014009002200190032003906946204664
:101AC00000F0CAF800220521142000F011FD1420B6
:101AD00000F000FD06B010BD0064004000100240A0
:101AE000000801407047704770477047704700001A
:101AF00070B5044690F82000012804D0606A40F4D4
:101B00000020606218E0022084F82000206801684C
:101B100021F00101016000F095F905460EE000BFDB
:101B200000F090F9401B0A2808D9606A40F40030A0
:101B30006062052084F82000012070BD20684068A4
:101B4000C007EDD1606270BD704770477047704745
:101B500070477047704710B590F821100022022995
:101B600005D00421816380F82020012010BD016888
:101B70000B6823F00E030B6001680B6823F0010370
:101B80000B6090F84030C46B012101FA03F36360ED
:101B900080F8211080F82020104610BD10B590F874
:101BA00021100024022903D00421816301243DE097
:101BB00001680A6822F00E020A6001680A6822F0D1
:101BC00001020A601A4A0168914201D1012121E013
:101BD000174A1432914201D110211BE0144A2832D5
:101BE000914201D1891515E0114A3C32914201D14F
:101BF00089140FE00E4A5032914202D14FF48031E5
:101C000008E00B4A6432914202D14FF4801101E0A6
:101C10004FF08071064A083A5160012180F8211086
:101C2000002180F82010416B01B18847204610BD8B
:101C30000800024070B5044600F004F90546601C37
:101C400002D004480078044400F0FCF8401BA04295
:101C5000FAD370BD280000202DE9F84FDFF8B891C5
:101C60000024A9F1040B23460F2709F1040AABF164
:101C7000040EC9E00125A5402A40AA427DD1674E45
:101C8000D1F804C0ACEB0608B44532D014DCBCF18A
:101C9000030F3AD009DCBCF1000F2AD0BCF1010FD0
:101CA0001CD0BCF1020F31D11DE0BCF1110F17D0D7
:101CB000BCF1120F2AD119E0B8F5881F19D006DC43
:101CC000B8F5803F15D0B8F5801F1FD111E0B8F5E9
:101CD000001F0ED0B8F5041F18D10AE0CB6815E03C
:101CE000CB681B1D12E0CB6808330FE0CB680C33C8
:101CF0000CE08B682BB1012B4FF0080303D045613A
:101D000004E0042302E0056100E00023FF2A01D87B
:101D1000064601E000F104064FEA840501D9A5F169
:101D20002005D6F8008007FA05FC28EA0C0803FA1B
:101D300005F548EA0508C6F800804D68ED0062D553
:101D4000374DAE6946F00106AE61AD6924F0030679
:101D500005F001050095334D06EB050CDCF8085045
:101D6000A607360F07FA06F825EA0805DFF8B88057
:101D7000404503D14FF0000817E044E0DFF8AC80A5
:101D8000404502D14FF001080FE0DFF8A480404544
:101D900002D14FF0020808E0DFF89880404502D1F8
:101DA0004FF0030801E04FF0040808FA06F848EA8B
:101DB0000508CCF808804D68D9F80060ED024D4662
:101DC00001D5164300E096432E604D68DAF80060B6
:101DD000AD02554601D5164300E096432E604D688E
:101DE000DBF80060AD035D4601D5164300E0964385
:101DF0002E604D68DEF80060ED03754601D5164390
:101E000000E096432E60641C0D682A46E5407FF48E
:101E100031AFBDE8F88F0000080401400000111048
:101E2000001002400000014000080140000C014089
:101E300000100140001401400AB10161704709041B
:101E4000FBE7000001488068704700002800002080
:101E500070B5040025D094F83D00002520B984F821
:101E60003C50204600F07EFA242084F83D00206893
:101E7000016821F0010101602068016841F400411E
:101E800001602068016821F40041016000F018FC45
:101E90004D4A6168914201D84C4900E04C49884262
:101EA00001D2012070BD4B492368B0FBF1F15E689F
:101EB00026F03F060E435E606368934206D94FF4F6
:101EC000967359434FF47A73B1FBF3F12368491CBD
:101ED0001E6A26F03F06314319626168914210D8AC
:101EE0004900401EB0FBF1F2521CC2F30B02042A5F
:101EF00001D2042022E0B0FBF1F0401CC0F30B0043
:101F00001CE0A268F2B301EBC10303EB0116431E10
:101F1000B3FBF6F35B1C43F480431B0549D092B33B
:101F200001EBC10202EB0111401EB0FBF1F0401CBD
:101F3000C0F30B0040F4804040F400402168CA69BF
:101F40004CF6FF739A431043C861D4E9071001436C
:101F50002068026822F0C00211430160D4E9030145
:101F600001432068826848F2FF339A43114381603D
:101F7000D4E9050108432168CA6822F0FF02104332
:101F8000C86001E00EE016E02068016841F0010140
:101F900001602564202084F83D00256384F83E50CC
:101FA000002070BD01EB4106431EB3FBF6F35B1C42
:101FB000B3E70120C2E701EB4101401EB0FBF1F0A5
:101FC000401CC0F30B00B7E7A086010080841E0010
:101FD00000093D0040420F002DE9FF4F83B000256E
:101FE000DDE910799A4693460446DDF8488000956D
:101FF000FFF728FF064694F83D0020287CD11923DE
:10200000012288492046009601F0C2FA0028F5D145
:1020100094F83C0001286FD0012084F83C0020682F
:102020000168C90703D1016841F00101016020681E
:10203000016821F400610160222084F83D00402005
:1020400084F83E0025646762A4F82A90608D20859C
:102050007548E062CDE9008653465A462046049909
:1020600001F098F900287CD1208DDFF8C09120275D
:1020700068B1012814D00228206801681ED041F4FC
:10208000806101602068416980690090BCE020683F
:10209000416981690091016841F400710160B3E018
:1020A0002068016821F48061016072B6206841698E
:1020B00081690091016841F400710AE041F4006116
:1020C000016072B62068416981690091016821F45C
:1020D0008061016062B697E0032865D801280CD0C2
:1020E000022843464FF000024946204600960BD096
:1020F00001F04EFAA8BB0CE091E032464146204682
:1021000001F0ECFA68BB72E001F042FA48BB72B62B
:1021100033E02068016821F48061016072B62068B4
:102120000069616A0870606A401C6062208D401E10
:102130002085608D401E60853D4846F2A8110068EC
:10214000B0FBF1F0C0EBC00000EB80000090401E3F
:10215000009007D020684069C04340070DD5009823
:10216000F5E727E044F8305F6773A573206940F016
:102170002000206162B625731CE02068016841F4EC
:102180000071016020680069616A0870606A401C23
:102190006062218D491E2185618D491E618562B66F
:1021A00021680969017026E032464146204601F067
:1021B00095FA18B1012007B0BDE8F08F20680069DA
:1021C000616A0870606A401C6062208D401E81B2A6
:1021D0002185608D401E608520684269D243520788
:1021E00012D4032903D1016821F4806101602068C1
:1021F0000069616A0870606A401C6062208D401E40
:102200002085608D401E6085208D00287FF464AF9E
:1022100084F83D7084F83E5084F83C50CBE70220AF
:10222000C9E70000020010000000FFFF04000100E9
:10223000340000202DE9FF4F83B09A46DDE9119765
:1022400093460446DDF84080FFF7FCFD054694F810
:102250003D0020287FD119230122404920460095C6
:1022600001F096F9002876D194F83C00012872D04C
:10227000012084F83C0020680168C90703D1016887
:1022800041F0010101602068016821F400610160F2
:10229000212084F83D00402084F83E00002626647A
:1022A000C4F82480A4F82A90608D20852C48E06230
:1022B000CDE9007553465A462046049901F0E8F8E6
:1022C00070B930E02A463946204601F03FFA58B14D
:1022D000206C042804D12068016841F40071016079
:1022E000012007B0BDE8F08F606A216800780861BE
:1022F000606A401C6062218D491E89B22185628D11
:10230000521E628522685369DB435B070BD469B1B7
:1023100000781061606A401C6062208D401E20853C
:10232000608D401E6085208D0028CBD12A4639461D
:10233000204601F001F90028CAD154F83D0B01688C
:1023400041F400710160202004F81E09E6776677E9
:102350000020C6E7FFE70220C3E7000002001000EC
:102360000000FFFF10B586B000210091019102919D
:10237000039100680F4988421AD10F4CA06940F0C0
:102380000800A061A069694600F008000490C02020
:10239000009012200190032003900848FFF75CFC96
:1023A000E06940F40010E061E06900F4001004907E
:1023B00006B010BD0054004000100240000C014067
:1023C000024881680278114481607047280000202B
:1023D000074810B5016841F010010160032000F0CA
:1023E000A7F80F2000F006F800F050F8002010BD0C
:1023F0000020024030B505461F4887B0C16941F052
:102400000401C161C06906A900F00400009001A8A0
:1024100000F036F90498B0B100F052F940001749C5
:10242000174AB0FBF1F11748491E0260416040F2C3
:10243000E7320021C0E903218160816100F04CFB9B
:10244000040003D015E000F03BF9E8E70D4800F088
:1024500071FB04000DD11E2000F03CF8102D07D2B6
:10246000002229461E2000F043F80748056000E0DE
:10247000012407B0204630BD0010024040420F004A
:10248000000800406C0900202C0000200F4808B50F
:10249000816941F001018161816901F001010091CF
:1024A000C16941F08051C161C069002200F08050D3
:1024B00000900F21901E00F01BF80548416821F0A4
:1024C000E06141F00071416008BD00000010024071
:1024D00000000140002809DB00F01F0201219140AB
:1024E0004009800000F1E020C0F8001170470000B2
:1024F000F0B40E4B1B680C46C3F30223C3F107056F
:10250000042D00D90425191D072901D2002300E05C
:10251000DB1E012606FA05F1491E214099409E4026
:10252000761E16403143F0BC02F009B90CED00E014
:10253000064900F0070208684FF6FF03184040EA1A
:102540000220034A10430860704700000CED00E0D1
:102550000000FA052DE9F0470F46050061D0434E13
:10256000306800F00700B84209D2306820F0070058
:1025700038433060306800F00700B84251D1286815
:102580003B4C810712D5400703D5606840F4E060FA
:1025900060602878000703D5606840F46050606090
:1025A0006068A96820F0F000084360602878C007E0
:1025B00028D06868012810D02168022810D0890727
:1025C00000292EDA616821F0030101436160FFF701
:1025D00039FC804641F288390DE021688903EFE734
:1025E0008901EDE7FFF72EFCA0EB0801494502D970
:1025F0000320BDE8F0876068696800F00C00B0EB6C
:10260000810FEFD1306800F00700B8420BD9306875
:1026100020F0070038433060306800F00700B8420F
:1026200001D00120E5E72878400705D56068E96812
:1026300020F4E060084360602878000706D56068F1
:10264000296920F4605040EAC100606000F058F849
:102650006168084AC1F30311515CC840064908602B
:1026600006480068FFF7C6FE0020C2E700200240CF
:10267000001002402A6E0008340000202C000020C8
:102680000F2202600C4A536803F00303436053684F
:1026900003F0F0038360536803F4E063C36052689F
:1026A0004FF4E06303EAD20202610448006800F0DC
:1026B0000700086070470000001002400020024040
:1026C0000448054900684968044AC1F30221515C85
:1026D000C840704734000020001002403A6E0008E5
:1026E0000448054900684968044AC1F3C221515CA5
:1026F000C840704734000020001002403A6E0008C5
:102700000E4A51680E4801F00C03042B11D0082B1F
:102710000FD10C48C1F38343C903C05C0AD551688B
:10272000084AC1F34041921E515C054A5043B0FB38
:10273000F1F0704704494843704700000010024020
:1027400000127A001A6E000800093D002DE9F84FCA
:10275000040070D02078C04DC00749D06868C0F32D
:102760008100012807D06868C0F38100022809D1E0
:102770006868C00306D52868800339D560680028DA
:10278000E7D035E06068B0F5803F0BD010B1B0F510
:10279000A02F11D0286820F480302860286820F409
:1027A000802002E0286840F480302860606890B1A2
:1027B000FFF748FB06460AE0286840F480202860BE
:1027C000F0E700BFFFF73EFB801B642873D8286842
:1027D0008003F7D50CE0FFF735FB064605E000BFA8
:1027E000FFF730FB801B6428F0D828688003F7D4FB
:1027F00020789A4E80074FF001094FF0000839D534
:10280000686810F00C0F07D06868C0F381000228D8
:1028100009D16868C00306D42868800714D52069E8
:10282000012808D110E02069B0B1C6F80090FFF788
:1028300009FB074605E00AE1FFF704FBC01B02287D
:10284000C4D828688007F7D52868616920F0F800A7
:1028500040EAC10028600DE0C6F80080FFF7F2FAF8
:10286000074604E0FFF7EEFAC01B022823D82868C9
:102870008007F7D4207800072CD57948A169D9B111
:10288000C0F80090FFF7DEFA074604E0FFF7DAFA37
:10289000C01B02280FD8686A8007F7D571484FF42B
:1028A000FA510068B0FBF1F0009000BF0098411EA3
:1028B0000091FAD20EE080E0C0F80080FFF7C2FA83
:1028C000074604E0FFF7BEFAC01B022875D8686A05
:1028D0008007F7D42078400760D5E8690027C0005A
:1028E00008D4E86940F08050E861E869012700F009
:1028F000805000905C480168C90513D40168834684
:1029000041F480710160FFF79DFA824606E000BF46
:10291000FFF798FAA0EB0A0064284ED8DBF8000015
:10292000C005F5D5E06801280AD008B1052813D004
:10293000286A20F001002862286A20F0040002E0E2
:10294000286A40F001002862E06841F2883B98B1B3
:10295000FFF778FA82460BE0286A40F0040028620C
:10296000EEE700BFFFF76EFAA0EB0A0159455AD80F
:10297000286A8007F6D50CE0FFF764FA824605E086
:10298000FFF760FAA0EB0A0159454CD8286A800786
:10299000F6D41FB1E86920F08050E861E06988B39F
:1029A0006968C1F38101022944D00228C6F8608019
:1029B00004D0FFF747FA044638E034E0FFF742FA64
:1029C000074604E0FFF73EFAC01B02282BD8286810
:1029D0008001F7D4206AB0F5803F05D16868A1680E
:1029E00020F4003008436860D4E9080108436968AE
:1029F00021F4741108436860C6F86090FFF722FA6A
:102A0000044606E025E000BFFFF71CFA001B022881
:102A100009D828688001F7D51BE000BFFFF712FA3C
:102A2000001B022802D90320BDE8F88F2868800126
:102A3000F4D40EE00128F7D06868226A00F48031EF
:102A4000914204D1616A00F47010884201D00120E3
:102A5000EAE70020E8E700000010024000004242E0
:102A600080044242340000200070004070477047EC
:102A700070B590F83C20012A26D0012480F83C4013
:102A8000022280F83D2003685A689D6822F0700693
:102A90000A6832435A600D4B02689A4208D0B2F17C
:102AA000804F05D00A4B9A4202D00A4B9A4204D179
:102AB000496825F080031943916080F83D4000216A
:102AC00080F83C10084670BD022070BD002C01400B
:102AD000000400400008004010B5040003D094F842
:102AE0003D0010B107E0012010BD002084F83C003B
:102AF000204600F01EF8022084F83D00211D2068C9
:102B000001F0DEFB012084F8460084F83E0084F8E2
:102B10003F0084F8400084F8410084F8420084F8C3
:102B2000430084F8440084F8450084F83D00002008
:102B300010BD704790F83D10012901D00120704769
:102B4000022180F83D100168CA6842F00102CA60A3
:102B500000680B49884208D0B0F1804F05D0094980
:102B6000884202D00849884204D1816801F00701F7
:102B7000062903D0016841F001010160002070477F
:102B8000002C0140000400400008004070472DE97F
:102B9000F04104460068C66805694FF00007A907C0
:102BA00013D5B10711D5F91E0161012020772068E6
:102BB00080698007204602D0FFF7E8FF04E000F0BC
:102BC000A5F8204600F04AF92777680716D5700760
:102BD00014D521686FF00400086102202077206876
:102BE000806910F4407F204602D0FFF7CFFF04E059
:102BF00000F08CF8204600F031F92777280715D52A
:102C0000300713D521686FF0080008610420207791
:102C10002068C0698007204602D0FFF7B7FF04E0B4
:102C200000F074F8204600F019F92777E80616D569
:102C3000F00614D521686FF0100008610820207795
:102C40002068C06910F4407F204602D0FFF79EFF45
:102C500004E000F05BF8204600F000F92777E80771
:102C600008D0F00706D021686FF001000861204607
:102C700000F0F6F8280608D5300606D521686FF072
:102C8000800008612046FFF7F1FE680608D570064F
:102C900006D521686FF040000861204600F0EAF890
:102CA000A8060AD5B00608D521686FF02000086193
:102CB0002046BDE8F041FFF7DABEBDE8F081000034
:102CC00000B585B000210091019102910391006847
:102CD0000B49884211D10B48816941F0040181619F
:102CE0008069694600F004000490402000900220B2
:102CF000019003900448FEF7AFFF05B000BD00004F
:102D0000000400400010024000080140704770B508
:102D1000044690F83C0000260D4601280FD0012003
:102D200084F83C006AB1042A1DD0082A2FD00C2A4E
:102D30003FD00126002084F83C00304670BD0220C0
:102D400070BD206801F0F8FA2068816941F008013F
:102D500081612068816921F00401816120688169B5
:102D60002A69114311E0206801F00EFB2068816997
:102D700041F4006181612068816921F48061816191
:102D8000206881692A6941EA02218161D2E72068CD
:102D900001F026FB2068C16941F00801C16120688B
:102DA000C16921F00401C1612068C1692A69114328
:102DB00011E0206801F040FB2068C16941F4006126
:102DC000C1612068C16921F48061C1612068C16965
:102DD0002A6941EA0221C161ACE710B5040003D0C1
:102DE00094F83D0010B107E0012010BD002084F8E8
:102DF0003C00204600F01EF8022084F83D00211D12
:102E0000206801F05DFA012084F8460084F83E0055
:102E100084F83F0084F8400084F8410084F84200C0
:102E200084F8430084F8440084F8450084F83D00A9
:102E3000002010BD08B500680649884208D1064840
:102E4000C16941F00201C161C06900F00200009057
:102E500008BD000000040040001002407047000060
:102E600000680349884201D1FFF7AABA7047000001
:102E7000000800407047704770470000F8B50168CF
:102E800004460868CA684B6910F00F0F4FF0000540
:102E900059D003F0010602F49077374365D0C1079B
:102EA00005D0D10503D5616C41F001016164410792
:102EB00005D5D90703D0616C41F002016164810737
:102EC00005D5D90703D0616C41F0040161640107A5
:102ED00007D502F02001314303D0616C41F00801B5
:102EE0006164616C00293AD0800604D5900602D551
:102EF000204601F0F2FA20684069616CC0F380104E
:102F0000090700D460B3204601F0C0FA2068406988
:102F1000400621D52068143050E8001F21F0400100
:102F200040E80012002AF5D1E06BA8B16D49416379
:102F3000E06BFEF733FE002811D0E06B416B01B06F
:102F4000BDE8F040084783060FD593060DD520460F
:102F5000BDE8F84001F0C1BA2046FFF78DFFF8BD8B
:102F60002046FFF789FF6564F8BD266B2023012EFC
:102F70007CD1C6067AD5D60678D508684868009010
:102F800048694FF00206400640D5E16B086840688A
:102F90000004000CE8D0A28D8242E5D9E085886962
:102FA00020282DD020680C3050E8001F21F48071BB
:102FB00040E80012002AF5D12068143050E8001FC4
:102FC00021F0010140E80012002AF5D120681430F8
:102FD00050E8001F21F0400140E80012002AF5D11E
:102FE00084F84230256320680C3050E8001F21F03F
:102FF000100140E80012002AF5D1E06BFEF7ABFDAE
:103000006663A08DE18D401A81B22AE0A08DE18D2A
:10301000401A81B2E08D0028A6D00029A4D02268F1
:103020000C3252E8000F20F4907042E80007002FA5
:10303000F5D12068143050E8002F22F0010240E85A
:103040000027002FF5D184F84230256320680C302A
:1030500050E8002F22F0100240E80023002BF5D1A9
:1030600066632046FFF707FFF8BDFFE705062BD58F
:10307000150629D594F841002128F5D1A068B0F5AE
:10308000805F01D12069B0B1206A411C21622168B2
:1030900000784860E08C401E0004000CE084E3D11E
:1030A0002068C16821F08001C1602068C16841F0DA
:1030B0004001C160D8E7206A0088C0F3080048607A
:1030C000206A801C2062E5E74006CDD55006CBD5AE
:1030D000CA68204622F04002CA6084F8413000F0FD
:1030E0003FF9C1E77D44000870B5040004D094F8AE
:1030F0004100002510B106E0012070BD84F8405069
:10310000204600F023F8242084F841002068C1689C
:1031100021F40051C160204601F040FA20680169A5
:1031200021F4904101612068416921F02A01416147
:103130002068C16841F40051C1606564202084F8B2
:10314000410084F842006563002070BD70B586B010
:10315000002400940194029403942B4E03682B499D
:10316000022003222A4DB34221D18B6943F48043CC
:103170008B618B6903F4804304938B6943F00403F0
:103180008B618969039201F0040104910102CDE988
:10319000001069462846FEF75FFD2815CDE90004BA
:1031A000694628460294FEF757FD06B070BD194ED9
:1031B000B342FAD1CB6943F40033CB61CB6903F45A
:1031C000003304938B6943F004038B618969039294
:1031D00001F0040104910421CDE90010694628465C
:1031E000FEF73AFD0820CDE900046946284602941E
:1031F000FEF732FD002205212620FFF779F926206F
:10320000FFF768F9D1E700000038014000100240E4
:10321000000801400044004090F84230202B01D0CB
:103220000220704721B11AB10023036301F012BAE2
:103230000120704738B500681D49884237D10168C0
:103240004FF00005C943090702D4016841680091A5
:103250000168C943490702D40168416800910168C7
:10326000C943890702D4016840680090114C124A92
:10327000618820785054491C89B26180FF2900D3AD
:1032800065800A2801D00D280AD1608815540A48A3
:1032900000F04EFB4FF480710748FDF758F9658048
:1032A000BDE83840012203490448FFF7B5BF38BDE7
:1032B0000044004000000020AC040020240900204D
:1032C0002DE9F843044690F84100984616460D460D
:1032D000202802D00220BDE8F88385B17EB100200D
:1032E0006064212084F84100FEF7ACFDA68481468D
:1032F000E684A0682027B0F5805F02D003E00120BB
:10330000E9E7206910B12E4600250EE000260CE00A
:103310008021204601F0B9F9A8B9C6B116F8010B11
:1033200021684860E08C401EE084E08C4B464FF002
:103330000002CDF800800028EAD14FF0400120467D
:1033400001F0A3F940B184F841700320C3E735F8D8
:10335000020BC0F30800E3E784F841700020BAE7ED
:103360007047FEE701684A69D24352050FD46FF4F3
:1033700080624A61002140F8301F2022427381732D
:10338000026942F0040202610173012070470020CB
:10339000704700002DE9F84F0446006889460B9DF0
:1033A00001689846174641F4806101602068016811
:1033B00041F48071016000954FF0011B00225946D5
:1033C00020460A9B00F0E4F84FF4007A40B12068F0
:1033D0000068C00501D5C4F840A00320BDE8F88FFF
:1033E000216809F0FE0008612B46284920460A9A08
:1033F00000F016F9F0BB20684169806900902A4608
:1034000020460A9900F0A2F940B1206C04283AD174
:103410002068016841F40071016034E0FEB2B8F147
:10342000010F09D02168380A08612A4620460A9906
:1034300000F08CF90028E8D1206806612A46204671
:103440000A9900F083F90028DFD12068016841F46F
:103450008071016000950022594620460A9B00F0C9
:1034600097F80028B3D1216809F0FF0040F001006F
:10347000086100E007E02B46044920460A9A00F064
:10348000CFF80028AAD00120A8E700000200010020
:103490002DE9F843044600680D46DDE90897016808
:1034A0009846164641F4807101604B4600224FF069
:1034B00001112046009700F06BF848B120680068C1
:1034C000C00502D54FF4007020640320BDE8F883E6
:1034D000216805F0FE0008613B464A461549204632
:1034E00000F09EF888B920684169806900903A46EA
:1034F0004946204600F02AF948B1206C042804D13E
:103500002068016841F4007101600120DEE7F5B236
:10351000B8F1010F09D02168300A08613A464946DE
:10352000204600F013F90028E7D12068056100204B
:10353000CCE700000200010070B516460D460446B7
:103540001EE02046FFF70EFF08B1012070BD681C89
:1035500016D0FEF777FC801BA84200D885B92068FA
:103560004069C04340070BD5002044F8300F2021AC
:103570006173A073216941F0200121612073E4E7A8
:1035800020684069C0434007DBD4002070BD0000C4
:103590002DE9F047984617460D460446C1F3074605
:1035A000DDF820902AE000BFB8F1FF3F26D0FEF7FB
:1035B00049FCA0EB0901414502D8B8F1000F1DD12B
:1035C0002068012E16D0806925EA00000004000C56
:1035D00012D00020B84211D1002044F8300F202131
:1035E0006173A073216941F02001216120730120E2
:1035F000BDE8F0874069E7E70120EBE72068012E8E
:103600000AD0806925EA00000004000C06D00020E2
:10361000B842C9D00020EBE74069F3E70120F7E7A3
:103620002DE9F047984616460D4604464FF000092E
:103630004FF0200AC1F3074723E020684069C043E8
:10364000400515D42068016841F4007101602168CB
:103650006FF480604861C4F8309084F83DA084F82D
:103660003E90216C41F00401216484F83C9021E0FB
:10367000701C06D0FEF7E6FBA0EB0800B04203D8B2
:1036800016B1012F1FD021E02068012F15D08069CD
:1036900025EA00000004000C18D000BF44F8309F59
:1036A00084F80DA084F80E90216941F02001216179
:1036B00084F80C900120BDE8F087406925EA0000FD
:1036C0000004000CEAD12068406901E020688069AC
:1036D00025EA00000004000CAFD1ECE72DE9F04131
:1036E000002590460E460446202728E04069C04346
:1036F000C0060CD454F8301B6FF01000486144F839
:1037000010596777A577206A2062257714E0FEF7C5
:1037100099FBA0EB0800B04200D886B92068406948
:10372000C04340060BD544F8305F6773A57320692A
:1037300040F02000206125730120BDE8F081206861
:103740004169C9434906D1D40020F6E770B5164651
:103750000D4604461EE02046FFF704FE08B1012096
:1037600070BD681C16D0FEF76DFB801BA84200D808
:1037700085B920684069C04300060BD5002044F895
:10378000300F20216173A073216941F02001216174
:103790002073E4E720684069C0430006DBD40020C2
:1037A00070BD00001FB507A06422006803900221CD
:1037B00003A88DE807000123052280210248FEF7B7
:1037C00039FD1FBD10000000400800201FB507A0F4
:1037D000642200680390022103A88DE807000123FA
:1037E000002280210248FEF725FD1FBD399F000001
:1037F000400800201FB56422022103A88DE80700BD
:103800000123042280210748FEF7E6FBBDF80C00E7
:1038100040BA00B201F0B2FE04B00349BDE8104066
:1038200001F0D8BE4008002017B7D1381FB5642278
:10383000022103A88DE807000A46012380210748DA
:10384000FEF7CAFBBDF80C0040BAC00801F0AEFE9E
:1038500004B00349BDE8104001F0BCBE40080020A0
:103860006F12833B10B5FFF7B1FF6420FEF7E2F95A
:10387000BDE81040FFF796BF2DE9F0431848A7B008
:10388000017818480129006804D017A1884603D19F
:10389000164902E016A1F9E7164901F0F1FD0446C8
:1038A000014615480068814601F094FE01F0BCFD18
:1038B00006460F46204601F0B7FD04460D46484631
:1038C00001F0B2FD8DE8F30042460CA106A8FCF71A
:1038D000D7FC06A8FDF7A6FE27B0BDE8F0830000E0
:1038E0000C000020080000206F6666008FC2F53DC6
:1038F0006F6E00008FC2753C0400002041542B4DB8
:103900005154545055423D302C22706F77657230BF
:103910003032222C22257323252E326623252E3386
:103920006623252E3266222C302C300D0A00000032
:103930002DE9F041074611A1FCF7A6FD00281BD098
:1039400011A13846FCF7A0FD104C114E4FF4005564
:1039500018B101202070002208E00EA13846FCF7C3
:1039600093FD002808D0002020700122294630460F
:10397000BDE8F041FEF760BABDE8F081706F776591
:1039800072303032000000006F6E00000C0000202A
:10399000001001406F6666000F4810B50D490160C8
:1039A0000921416000214FF480228160C0E90312A7
:1039B00092004261017641768176C1760177417746
:1039C000FDF7C5FF002803D0BDE81040FDF740BE5D
:1039D00010BD0000006400401808002010B58EB033
:1039E0001C220B496846FCF780FD0021684600F068
:1039F00015FF084C06491C2260601C3107A8FCF723
:103A000074FD002107A800F009FFA0600EB010BDF2
:103A1000E06D00081C0000202DE9F04786B000246E
:103A200030480094019402940394816941F010019C
:103A30008161816901F010010491816941F02001E7
:103A40008161816901F020010491816941F00401E3
:103A50008161816901F004010491816941F00801EB
:103A600081618069012200F00800DFF87C80550345
:103A7000049029464046FEF7DFF9DFF870900122F6
:103A800010214846FEF7D8F9DFF864A04FF44077DC
:103A9000002239465046FEF7CFF90095022601254F
:103AA0000396CDE9015469464046FEF7D5F8CDE9C5
:103AB0000054694648460294FEF7CEF81020CDE93E
:103AC0000005CDE9024669464846FEF7C5F800976D
:103AD0000396CDE9015469465046FEF7BDF806B09D
:103AE000BDE8F087001002400010014000080140CE
:103AF000000C01400D4810B50B4901600C494160B4
:103B000000214FF480428160C0E90312416181616C
:103B1000C1610162FEF79CF9002803D0BDE81040A6
:103B2000FDF796BD10BD0000005400404008002085
:103B3000A086010010B58AB0002407941C216846B5
:103B40000894FCF726FD16481449C0E900144FF606
:103B5000FF71C0E9024104618461FFF73EF908B1D9
:103B6000FDF776FD079407A90D480894FEF780FF3E
:103B700008B1FDF76DFD6020CDE90004029400223C
:103B8000694607480494FFF7C2F808B1FDF760FDE5
:103B90000348FFF795F80AB010BD0000000400408C
:103BA000940800200C4810B50A4901604FF4E13137
:103BB0004160002181600C22C160C0E90412816172
:103BC000C161FFF791FA002803D0BDE81040FDF76E
:103BD0003FBD10BD00380140DC0800200C4810B586
:103BE0000A4901604FF4E1314160002181600C22FB
:103BF000C160C0E904128161C161FFF775FA002854
:103C000003D0BDE81040FDF723BD10BD00440040C7
:103C100024090020FEE7FEE710B50021074C0A4604
:103C2000002004EBC1131A54401CC0B28028FAD300
:103C3000491CC9B20829F3D310BD0000AC00002014
:103C4000F0B57F282AD83F2928D88418802C02D99B
:103C5000C0F18002D2B2CC18402C02D9C1F140038D
:103C6000DBB20126DFF838E087180B4414E001F0DE
:103C7000070206FA02F5CA0804460EEBC21207E074
:103C800012F804C02CEA050C02F804C0641CE4B26B
:103C9000A742F5D8491CC9B28B42E8D8F0BD000054
:103CA000AC00002010B5012000F048F9BDE810403C
:103CB000012000F04BB970B500240646802525FA96
:103CC00004F0304000D0012000F040F9012000F065
:103CD00035F9002000F032F9641CE4B2082CEED370
:103CE000012000F02BF9BDE87040002000F026B95B
:103CF00010B5012000F02AF9012000F01FF9002082
:103D000000F024F9BDE81040002000F017B910B50C
:103D1000002000F01BF9012000F010F9BDE8104070
:103D2000012000F013B910B5FFF7BCFFAE2000F082
:103D300015F9D52000F012F9802000F00FF9A82025
:103D400000F00CF93F2000F009F9D32000F006F94B
:103D5000002000F003F9402000F000F9A12000F05D
:103D6000FDF8C82000F0FAF8DA2000F0F7F8122089
:103D700000F0F4F8812000F0F1F8CF2000F0EEF828
:103D8000D92000F0EBF8F12000F0E8F8DB2000F09B
:103D9000E5F8302000F0E2F8A42000F0DFF8A620DB
:103DA00000F0DCF88D2000F0D9F8142000F0D6F8EF
:103DB000BDE81040AF2000F0D1B810B50C4640F07F
:103DC000B00000F0CBF8102040EA141000F0C6F864
:103DD00004F00F00BDE8104000F0C0B808B5082B93
:103DE0000ED0062B15D00C2B1ED1104B02EBC202AD
:103DF00003EB8202A2F59062182300920C2211E0DC
:103E00000B4B03EB0212A2F5007210230092082262
:103E100008E0084B02EB420203EB4202C03A009278
:103E20000823062200F008F808BD0000846000089E
:103E30005A5800084A5E00082DE9FC4F1F461546F7
:103E40000C4606467F284AD83F2C48D8FFF7F8FE94
:103E5000781EC117002300EB51700121DFF884B0F8
:103E600004F0070901EBE00737E0002031E03118EA
:103E70007F2930D803EBD40ABAF1070F2FD80BEB08
:103E8000CA1E03FB05F21EF801C00192DDF82C806A
:103E90008044CDF8008012F8082002FA09F24CEABA
:103EA000020C0AF101020EF801C0072A0FD80EEB2E
:103EB0000108DDE900C198F8802011F80CC0C9F1B3
:103EC00008012CFA01FC42EA0C0288F88020401C10
:103ED000C0B2A842CBD35B1CDBB29F42C5DCBDE8BD
:103EE000FC8F0000AC0000202DE9F0411E46154675
:103EF00088460746002408E004FB0670C0B233463B
:103F00004146FFF76BFF641CE4B22A5D002AF3D13F
:103F1000BDE8F08170B5084D002400212046FFF770
:103F20004CFF05EBC410802100F029F8641CE4B2BA
:103F3000082CF2D370BD0000AC00002002464FF404
:103F400080710148FDF778BF000C014002464FF434
:103F500000710148FDF770BF000C014010B5044628
:103F6000FFF7C6FE7820FFF7A6FE0020FFF7A3FEAE
:103F70002046FFF7A0FEBDE81040FFF7C8BE70B5B1
:103F80000D460646FFF7B4FE7820FFF794FE40206A
:103F9000FFF791FE002404E0305DFFF78CFE641C07
:103FA000E4B2AC42F8D3BDE87040FFF7B0BE000009
:103FB00010B50446FCF77AFA214682B2BDE81040FB
:103FC00064230148FFF77CB9DC08002041F2883007
:103FD00000F018FCFDF78AFA094D2E78FFF74CFC2B
:103FE000012E0BD0642700242878B042F5D164203C
:103FF00000F008FC641CBC42F6DBEEE71E27F2E78B
:104000000C0000208AB0FF26FFF78DFEFFF72AFC88
:10401000DFF88CA1DFF88CB1DFF88C81634FDFF81B
:10402000909100BFFFF702FC4446C8F80000FFF77C
:10403000E1FB60490860397801297BD05E4901F0D5
:104040001FFA099036B18120FFF788FF2020FFF783
:1040500085FF00262068A0460999044601F0BAFAB7
:10406000089040F22311CAF800100021CAF80C1081
:10407000CAF808100821CAF810105049204601F06B
:10408000A9FA01F05FFA05464946099801F0A2FA3B
:10409000099001F057FA04464946089801F09AFA47
:1040A00001F050FA2A0A8BF800208BF80150220AFE
:1040B0008BF802208BF803403A7801468BF80420F5
:1040C0000A0A8BF805203E498BF806003D480A781D
:1040D0008BF80720521C0A70FDF725FB28B13A4BDC
:1040E000304A2F493748FDF7B5FAD8F8000001F0FB
:1040F0009BF902460B4635A16846FCF7C1F8002142
:1041000008236A460846FFF7EFFE099801F08CF98C
:1041100002460B4631A16846FCF7B2F808236A460E
:1041200010210020FFF7E0FE089801F07DF902461B
:104130000B4600E01BE02DA16846FCF7A1F8082320
:104140006A4620210020FFF7CFFE38784FF00803A1
:1041500001281BD029A230210020FFF7C5FEFFF760
:10416000D9FE4FF4FA7000BF00F04CFB5AE7284923
:1041700001F086F90990012E3FF46CAF8120FFF722
:10418000EDFEFF20FFF7EAFE012663E721A23021C2
:104190000020FFF7A9FEFFF7BDFEC820E4E70000FE
:1041A000AC0500200D000020040000200C000020C1
:1041B00000007A44080000208FC2753C0000C8420D
:1041C0001C0000201808002018000020563A202566
:1041D0002E3266205620202020000000493A20255B
:1041E0002E3166206D41202020000000503A20250D
:1041F0002E32662057202020200000005B204D4FEB
:1042000044453A2045434F202020205D0000000017
:104210008FC2F53D5B204D4F44453A204E4F524DE5
:10422000414C205D0000000010B5502080F3118843
:10423000BFF34F8FBFF36F8F01F012F818B104492D
:104240004FF080500860002080F3118810BD0000FE
:1042500004ED00E030B58FB028216846FCF799F9ED
:1042600014210AA8FCF795F901210804CDE90010F2
:104270000024029402250491CDE907504FF4E01088
:1042800009906846FEF762FA08B172B6FEE70F20A1
:10429000CDE90A054FF48060CDE90C4002210AA85F
:1042A0000E94FEF757F9002801D072B6FEE70FB062
:1042B00030BD70470148FEF76ABC00006C09002061
:1042C000F0B50268194B1A4C1A4D4FF080479842CE
:1042D00005D0B84203D0A04201D0A84203D122F0B9
:1042E00070064A683243984205D0B84203D0A042D3
:1042F00001D0A84203D122F44074CA6822434C6919
:1043000022F08002224302608A68C2620A688262E6
:10431000984201D109690163012141610169C9071D
:1043200003D0016921F001010161F0BD002C0140C1
:10433000000400400008004030B5036A026A22F021
:10434000010202624268846924F073050C682C4300
:1043500023F002058B682B430A4DA8420BD123F0B2
:104360000805CB6822F440722B434D6923F0040307
:1043700015438A692A434260846149684163036244
:1043800030BD0000002C014030B5026A036A23F002
:1043900010030362436884690D6824F4E64444EA28
:1043A00005248D6822F0200242EA05120B4DA84236
:1043B0000ED1CD6822F0800242EA05124D6923F445
:1043C000406343EA85038D6922F0400243EA850396
:1043D0004360846149688163026230BD002C014002
:1043E00030B5036A026A22F4807202624268C469CC
:1043F00023F4007324F073050C682C438D6843EAA2
:1044000005230C4DA8420ED1CD6823F4006343EA86
:1044100005234D6922F4405242EA05128D6923F4C6
:10442000806342EA05124260C4614968C163036265
:1044300030BD0000002C014030B5046A026A22F44D
:10444000805202624268C3690D6823F4E64343EA7E
:1044500005238D6824F4005444EA0534064DA8422F
:1044600004D14D6922F4804242EA85124260C36160
:1044700049680164046230BD002C014010B5406AF7
:104480000021C185C184FEF7F7FC10BD01680C3125
:1044900051E8002F22F4907241E80023002BF5D15F
:1044A0000168143151E8002F22F0010241E8002395
:1044B000002BF5D1016B012909D101680C3151E8BC
:1044C000002F22F0100241E80023002BF5D120211B
:1044D00080F8421000210163704708B590F842103F
:1044E000222901D0022008BD82684FF480539A42ED
:1044F00001D1016921B1816A9A421BD04AB10AE017
:104500000268816A5268C2F308020A80816A891CC3
:1045100008E0026972B10268526802F07F020A7014
:10452000816A491C8162C18D491E0904090CC1853B
:1045300003D01BE002685268F1E70168CA6822F004
:104540002002CA600168CA6822F48072CA600168E9
:104550004A6922F001024A61202180F842100021BC
:104560004163026B012A03D0FEF764FE002008BD00
:10457000016301680C3151E8002F22F0100241E87C
:104580000023002BF5D101680A68D20602D50A681B
:1045900049680091818DFEF76EFCE7E770B504462F
:1045A00000680169E26821F4405111430161216909
:1045B000A0680843616908432168CA6841F20C6336
:1045C0009A430243CA6020684169A26921F440719C
:1045D000114341611E492068884202D1FEF780F8EC
:1045E00001E0FEF76DF800EBC00101EB001260681E
:1045F00064218000B2FBF0F3B3FBF1F36FF0180617
:104600007343B2FBF0F5B2FBF0F605EB8305322302
:1046100003EB0515B5FBF1F5B6FBF1F605F0F0057A
:1046200005EB0615B2FBF0F6B2FBF0F0B0FBF1F0D3
:104630006FF01802504306EB800003EB0010B0FB54
:10464000F1F0216800F00F002844886070BD000080
:104650000038014081628285C285002141642221A7
:1046600080F84210016921B10168CA6842F4807281
:10467000CA6001684A6942F001024A610068C16883
:1046800041F02001C160002070472DE9F8439846B1
:1046900017460D460446089E24E0701C22D0FDF704
:1046A000D1FBA0EB0800B0421AD8CEB12068C16897
:1046B000490717D5802D15D0402D13D00168C94367
:1046C00009070FD401680025406800902046FFF7D5
:1046D000DDFE0820606484F840500120BDE8F883C6
:1046E0000320FBE72068006835EA000004D00020C2
:1046F000B842D2D00020F1E70120F9E70148FEF7E7
:10470000BDBB0000240900200148FDF722B80000CD
:1047100018080020FEE7490050EAC12018BF042015
:104720004A0D18BF40F0010040F2FF72B2EB515F3A
:1047300008BF40F00200012808BF052070470907A4
:10474000090E002804DB00F1E02080F80014704717
:1047500000F00F0000F1E02080F8141D70473038A1
:104760000A2801D201207047002070470949012022
:10477000096809B1002070470749CA69002AF9D1C0
:10478000044A283212688968491E8A42F3D10220FD
:1047900070470000680A002038000020FDF718FE6E
:1047A000FFF758FDFFF738F9FFF7F6F8FFF7A2F922
:1047B000FFF7C0F9FFF7F6F9FFF710FA4FF4FA70B8
:1047C000FDF738FAFFF7AFFAFFF726FA0848FDF7CA
:1047D0008FF9084840F2231101600021C160816017
:1047E00008210161FFF7FAF800F013F8FEE7000076
:1047F00018080020AC05002001460020842900D0C4
:10480000C81C704710B500B9012000F0D7FB00208C
:1048100010BD10B500F0F8FB002010BD7FB50D46AF
:1048200004464169B0F9080081B1A16971B1FFF78F
:10483000E3FFD4E905128DE80700D4E900102B4608
:10484000226900F0E2FC039004B070BDFFF7D4FFD2
:1048500003A9CDE90001208A2B4682B2D4E90010D9
:1048600000F0A6FC012801D00020EDE70398EBE75B
:104870002DE9F041184C0F460546E6682068001DFA
:1048800000F050FA38B9206890F82C1001208840C8
:10489000216981432161681C07D137B12168BDE8D6
:1048A000F0410E48091D00F089BA20683544B54230
:1048B0004560216805D2A06BBDE8F041091D00F0FC
:1048C00065BA606B091D00F061FAA06A854200D2EA
:1048D000A562BDE8F081000038000020900A0020A9
:1048E0002DE9F041054600F075FA2E4CA068401CF9
:1048F000A06020682C4F10B1606940B32DE02560A6
:10490000A068012829D1002606EB860007EB80006D
:1049100000F02EFA761C072EF6D323488C3000F0D8
:1049200027FA2148A03000F023FA1F48B43000F0E5
:104930001FFA1D48C83000F01BFA1B48DC3000F09D
:1049400017FA19488C3060631430A06305E02068C2
:10495000E96AC06A884200D82560606A401C6062CB
:10496000E96A0120226988401043206101EB81003F
:1049700007EB8000291D00F021FA00F04BFA606976
:1049800000280CD02068E96AC06A884207D207492B
:104990004FF080500860BFF34F8FBFF36F8FBDE8BB
:1049A000F081000038000020B409002004ED00E090
:1049B00010B5044690F8510058B101280CD00228D7
:1049C0000FD0502080F31188BFF34F8FBFF36F8F4C
:1049D000FEE7206B00F032FA2046BDE8104000F000
:1049E0002DBA10BD0A4800210269012A00D901210F
:1049F0000268D26A0AB100207047064A1268012A8A
:104A0000F9D80029F7D1816AC068081A70470000F8
:104A100038000020B409002010484FF4005142072C
:104A200006D0C01D0D4920F00700411AC1F5005104
:104A30000B4A00230144C2E900030839183A21F067
:104A4000070111604B600B600B1AC0E90013936003
:104A50004FF000405360506170470000A40A0020EE
:104A60008C000020214C224E12E000BF00F0B2F971
:104A7000F068C568281D00F055F9A068401EA060C8
:104A80006068401E606000F0C5F92846FFF790FF9F
:104A900060680028EAD11648C8380068012807D99C
:104AA00014494FF080500860BFF34F8FBFF36F8FF2
:104AB00000F056F9FFF796FF0228D4D300F0EEFA83
:104AC000A06AE168884207D2502080F31188BFF3C2
:104AD0004F8FBFF36F8FFEE7FFF784FF022801D3EC
:104AE00000F002FA00F022FCBDE7000038000020D0
:104AF0007C0A002004ED00E02DE9F0479A46DDE94C
:104B0000098481466FF00303206B03EB820210449B
:104B1000089E20F00707780707D0502080F31188FF
:104B2000BFF34F8FBFF36F8FFEE7002561B1002009
:104B300023180A5C83F834200A5C12B1401C102848
:104B4000F6D384F8435001E084F83450072E00D3A4
:104B50000626E662C4E91165201D00F014F904F18F
:104B6000180000F010F92461C6F107006462A0612A
:104B7000E56484F8505052464946384600F0C0F883
:104B80002060B8F1000F01D0C8F80040BDE8F08700
:104B900030B5114900E011460A688242FBD34B68E8
:104BA0005C18844203D14068184448600846436852
:104BB0001C18944209D1084C183C2468A24209D020
:104BC00052681A4442600A6812680260814200D04A
:104BD000086030BD0460F9E78C0000200648416B96
:104BE000096829B1416BC968C96849688162704721
:104BF0004FF0FF31FAE70000380000200848406815
:104C0000401C4FF0500080F3118804D0BFF34F8F49
:104C1000BFF36F8FFEE7BFF34F8FBFF36F8FFEE7DA
:104C2000940000202DE9F0410546002700F036FAF7
:104C3000324E306808B9FFF7EFFE706905424ED179
:104C4000C5B3083568070ED005F00700C0F10800AD
:104C50000544680707D0502080F31188BFF34F8FB9
:104C6000BFF36F8FFEE72DB37068854237D82348B6
:104C7000183001460C6801E020460C466168A942E4
:104C800002D221680029F7D131688C4227D0076809
:104C90002168016060680837411B10290FD960192D
:104CA000420708D0502080F31188BFF34F8FBFF325
:104CB0006F8FFEE713E041606560FFF769FF616891
:104CC0007068401A7060B268904200D2B06070693B
:104CD00001430020C4E90001F068401CF06000F0CE
:104CE00025FB780707D0502080F31188BFF34F8F42
:104CF000BFF36F8FFEE73846BDE8F08174000020F7
:104D000010B5031F4FF080741C601B1F21F00101C0
:104D10001960191F024B0B60143940380A6010BD2E
:104D2000FD4B0008D0E9013201699A60D0E9012306
:104D30005A604A68824201D182684A600022026158
:104D40000868401E0860086870470000034B036055
:104D500003F154000860802010607047C4050020F3
:104D600002480078002800D130BF70470C000020B6
:104D700000F108014FF0FF32C0E90112C16001618A
:104D800000210160704700210161704730B50B6858
:104D90005A1C02D000F1080202E0026904E0224637
:104DA000546825689D42FAD953684B6099608A60BF
:104DB000516008610168491C016030BD42684A6069
:104DC00093688B6093685960916008610168491C21
:104DD00001607047502080F31188BFF34F8FBFF3FD
:104DE0006F8F0A494868401C486001280CD1084868
:104DF000006810F0FF0F07D0502080F31188BFF338
:104E00004F8FBFF36F8FFEE77047000094000020C4
:104E100004ED00E00849486828B1401E486001D10F
:104E200080F311887047502080F31188BFF34F8FB3
:104E3000BFF36F8FFEE700009400002070B50028DC
:104E40002AD0164DA0F1080460686969084207D1AC
:104E5000502080F31188BFF34F8FBFF36F8FFEE7B1
:104E600022683AB1502080F31188BFF34F8FBFF30F
:104E70006F8FFEE78843606000F010F96068696832
:104E8000084468602046FFF783FE2869401C2861BB
:104E9000BDE8704000F04ABA70BD00007400002008
:104EA0000F4810B501684FF47A72B1FBF2F30D4868
:104EB0006FF07F448360B4FBF3F3C360B1FBF1F3A5
:104EC0002D24B4FBF3F303614FF0E02000230361D2
:104ED0008361B1FBF2F1491E41610721016110BDFF
:104EE00034000020940000202DE9F041324E0546A8
:104EF000F068854200D905464FF0E024206920F093
:104F000001002061A169B268681E02FB00173069C8
:104F1000874200D93F1A72B6BFF34F8FBFF36F8F2E
:104F2000FFF724FC48B367610021A161206940F0CC
:104F30000100206125B1BFF34F8F30BFBFF36F8FEA
:104F400062B6BFF34F8FBFF36F8F72B6BFF34F8F51
:104F5000BFF36F8F062020612069C00314D5A069BC
:104F6000B268381A101A3369401E984201D3904231
:104F700000D9501E6061681E10E0A0696061206960
:104F800040F00100206110E0B368A0695D432A1A77
:104F9000B2FBF3F0451C5D43AA1A6261A16121696D
:104FA00041F00101216100F065F8B068401E6061C8
:104FB00062B6BDE8F08100009400002010B5020048
:104FC00014D00F48006B38B1502080F31188BFF324
:104FD0004F8FBFF36F8FFEE700F060F8002110469F
:104FE000FFF746FC00F0A2F9002807D105494FF071
:104FF00080500860BFF34F8FBFF36F8F10BD00006C
:105000003800002004ED00E010B586B000240394C1
:1050100005AA04A903A80494FFF798FEDDE903019B
:105020000094CDE9011000230EA11048059A00F06C
:10503000ECF80F490028C86211D0502080F3118885
:10504000BFF34F8FBFF36F8F4FF0FF3088620120A7
:105050004861CC6006B0BDE8104000F055B806B01D
:1050600010BD000049444C4500000000654A00089E
:10507000380000200849CA688B6A02449A4207D95E
:10508000502080F31188BFF34F8FBFF36F8FFEE77F
:10509000CA681044C8607047380000200248016B9D
:1050A000491C016370470000380000201448016B60
:1050B00011B10121C16170470021C1610169B1FADB
:1050C00081F1C1F11F0101EB81020E4951F822303B
:1050D0006BB101EB820101F108034A6852684A6032
:1050E0009A4201D152684A60D168016070475020ED
:1050F00080F31188BFF34F8FBFF36F8FFEE700007F
:1051000038000020B40900201CB526490878019019
:10511000FF20087008788DF800009DF800009DF8C9
:10512000002000F0F000904207D0502080F311885A
:10513000BFF34F8FBFF36F8FFEE79DF800001A4C4F
:1051400000F0500020700720606105E09DF800200D
:1051500052008DF80020401E9DF800201206F5D464
:105160006061032807D0502080F31188BFF34F8F70
:10517000BFF36F8FFEE74FF44070606101980870D5
:105180000A48016841F470010160016841F0704112
:105190000160FFF785FE00206060FBF717F8002034
:1051A0001CBD000000E400E09400002020ED00E0C1
:1051B0002DE9FF5F8346DDE90E87994616468A464C
:1051C0009000FFF72FFD05001CD05420FFF72AFDAB
:1051D000040014D00020256384F85100CDE902407A
:1051E000CDE900874B46324651465846FFF784FCCE
:1051F0002046FFF775FB012004B0BDE8F09F28466C
:10520000FFF71CFE4FF0FF30F6E7F0B585B0DDE9A3
:105210000B640A9DA6B1DCB15427009726630226D1
:1052200084F85160002604AFCDE90246CDE900576D
:10523000FFF762FC2046FFF753FB049805B0F0BD72
:10524000502080F31188BFF34F8FBFF36F8FFEE7BD
:10525000502080F31188BFF34F8FBFF36F8FFEE7AD
:105260002DE9F0412F4C0026206B28B1A069401C8D
:10527000A0613046BDE8F081E5686D1CE56013D1A2
:10528000606B006838B1502080F31188BFF34F8FF6
:10529000BFF36F8FFEE7606BA16B6163A063206A51
:1052A000401C2062FFF79AFCA06ADFF87C808542F0
:1052B00009D3606B0068A0B1606BC068C76878688C
:1052C000854211D2A0622068C06A00EB800158F8C4
:1052D0002100012800D90126E0690028C9D0012653
:1052E000C7E74FF0FF30EDE7381DFFF71BFDB86A49
:1052F00018B107F11800FFF715FDF96A01202269BE
:1053000088401043206101EB810108EB8100391DC9
:10531000FFF754FDF86A2168C96A8842C9D301269B
:10532000C7E7000038000020B40900202DE9F0474D
:105330002C4D00242746286B38B1FFF74BFD286B16
:10534000401E2863286B40B146E0502080F311884E
:10535000BFF34F8FBFF36F8FFEE7A968224E012086
:10536000D1B3A6F1B40980463068E8B1F068C468EA
:1053700004F11800FFF7D6FC201DFFF7D3FCE06A0C
:105380002A6908FA00F11143296100EB800109EB59
:105390008100211DFFF712FDE06A2968C96A884271
:1053A000E2D3C5F81C80DFE70CB1FFF717FCAC694E
:1053B00044B14646FFF754FF00B1EE61641EF9D1D7
:1053C0000020A861E86938B108490127380708605A
:1053D000BFF34F8FBFF36F8FFFF71CFD3846BDE85B
:1053E000F087000038000020680A002004ED00E08B
:1053F00010B500290AD00878002807D0054878445D
:10540000FBF7EEF8002801D0002010BD02487844D8
:1054100010BD00006A1B0000621B00000808A0F518
:1054200000114FEA3101704743004FEAD30C4FEAB5
:105430003C0C43401FBF40070CF1605113F0FE4F7E
:1054400070471CF0006F03D100200CF00041704742
:105450000CF0004343EA507010B540EACC0000F075
:105460003AF900BF000000924FEA0001FFF7D6BFF3
:105470004FF000414FF00000A1F5002170470000FF
:1054800090EA010F48BF81F0004100F17681421A95
:105490003CBF801A89184FEAD0524FF07F4C1CEA6B
:1054A000410FA2EBD15318BF9CEA026F00F03B8082
:1054B0004FF0004C4CEA00204CEA012121FA03FC99
:1054C00010EB0C0C1ED202F1FF325FEA1C2040EB05
:1054D000C25038BF70471CF07F0F4FEA400C18BF16
:1054E000BCF17F4F38BF7047C3F12003994008BF1C
:1054F00020F00100BCF17F4F38BF7047A0F1C040E1
:1055000000F02FB94FEA3C00000A40EBC25028BF20
:105510001CF0FF0F4FEA400CE6D018BFBCF17F4FE4
:1055200038BF7047EAE79CEA026F05D010EA5C0FCB
:1055300008BF00F00040704710B500F0CCF800BF85
:1055400064FBBE3E41000B0ED3F19E0208D950F41D
:1055500000034FEA032323FA02F048BF404270479A
:1055600010B500F0B8F800BF4992248000207047C1
:105570006FF0004282EA20007047000010F0004106
:1055800048BF4042B0FA80F310FA03F2C3F19D0322
:105590000BD051EAC35101EB1220530638BF7047BC
:1055A00000F1010008BF20F001007047B0FA80F35D
:1055B00010FA03F2C3F19D030AD0D90501EB1220C2
:1055C000530638BF704700F1010008BF20F001000A
:1055D000704700004FF47F0C1CEAD0121EBF1CEA7B
:1055E000D11392EA0C0F93EA0C0F00F0478090EA77
:1055F000010F48BF42F480724FF0004C4CEA00208B
:105600004CEA012102EB0302A0FB0113A2F5000208
:10561000002918BF43F001035B0028BF4FEA3303A2
:1056200042EB22425FEA132C4CEBC2502EBFBCEB84
:10563000436FB2F57C0F70474FEA036CBCF1004F2B
:1056400008BF20F00100B2F57C0F38BF70470BD5C2
:1056500082F0FF0212F5803FC8BF704700F1C040E2
:10566000D8BF00F00040704700F5000C5FEA4C0C1A
:1056700048BF7047B0F1C04000F073B890EA010F26
:105680000CEAD11348BF42F48072624538BF6345CB
:1056900004D280EA010000F00040704710B500F02D
:1056A0001AF800BF8900013E00F007B800F009B801
:1056B0005FEA410C5FEA1C6C08D080EA010000F050
:1056C00050B85FEA400C5FEA1C6CF6D14FF0004026
:1056D000A0F5800070470EF1020E2EF0030E5EF86A
:1056E000044B244204D44FEA4102B2F17F4F11D857
:1056F0004FEA4003B3F17F4F0CD80ED14FEAD07C74
:10570000B2F17F4F0CEB4C0C0CF1020C08BF4CEBD0
:10571000D17C04E04FF0080C01E04FEAD17C0CEBA7
:105720004C0324FA03F404F00704B4F1040C06D289
:105730000EEB840CBDE810404CF0010C6047DFE834
:105740000CF0070802024FF00040A0F5800010BDE9
:105750000846420018BFD2F1807288BF00F00040B6
:1057600010BDFF2141EAD050C005704790EA010FFB
:1057700048BF81F000413FF58AAE421A04D882F05A
:105780000042A0EB020011444FEAD0524FF07F4C90
:105790001CEA410FA2EBD15318BF9CEA026F4AD01A
:1057A0004FF0004C4CEA00204CEA012121FA03FCA6
:1057B000B0EB0C0C0FD412F0FE0F36D05FEA4C00A9
:1057C0001DD5001240EBC25038BF70471CF03F0F90
:1057D00018BF70470BE0A2F101025FEA1C2040EB0A
:1057E000C25038BF70471CF07F0F18BF7047C3F11D
:1057F0002003994014BF401E20F00100704780082C
:105800004FEA122308BF7047B0FA80FCA2EB0C02EB
:10581000CCF1280C60FA0CF093EA122F04BF00EBD5
:10582000C25070474FEAC3707047130A5FEADC103A
:1058300008BF7047F6E79CEA026F04D010EA5C0FDD
:1058400008BF0020704710B5FFF745FF40DFF63E68
:1058500081F000407047FAF7DFBF00000000000051
:1058600000000000000000000000000000F8000040
:105870000000000000333000000000160E00160E7D
:105880000000000000000000000040C07840C07828
:105890004000043F04043F040400007088FC08300A
:1058A0000000001820FF211E0000F008F000E018A2
:1058B000000000211C031E211E0000F0088870005B
:1058C00000001E21232419272110000000160E00BD
:1058D00000000000000000000000000000E01804CC
:1058E0000200000000071820400000020418E00039
:1058F00000000040201807000000404080F0804079
:1059000040000202010F01020200000000F000004E
:1059100000000101011F0101010000000000000062
:10592000000000B070000000000000000000000057
:105930000000000101010101010100000000000060
:105940000000003030000000000000000000806017
:105950001804006018060100000000E0100808109C
:10596000E000000F102020100F00001010F80000C1
:1059700000000020203F2020000000700808088858
:105980007000003028242221300000300888884828
:1059900030000018202020110E000000C02010F858
:1059A000000000070424243F240000F80888880829
:1059B00008000019212020110E0000E0108888182E
:1059C0000000000F112020110E0000380808C83810
:1059D00008000000003F00000000007088080888F0
:1059E0007000001C222121221C0000E01008081079
:1059F000E0000000312222110F00000000C0C000B2
:105A000000000000003030000000000000C0C000B6
:105A10000000000080B070000000000080402010F6
:105A200008000001020408102000404040404040AF
:105A30004000040404040404040000081020408012
:105A40000000002010080402010000704808080847
:105A5000F0000000003036010000C030C828E81017
:105A6000E0000718272423140B000000C038E000D2
:105A70000000203C23020227382008F8888888701C
:105A80000000203F202020110E00C0300808080828
:105A90003800071820202010080008F8080808100F
:105AA000E000203F202020100F0008F88888E80838
:105AB0001000203F20202320180008F88888E808DC
:105AC0001000203F200003000000C0300808083804
:105AD000000007182020221E020008F80800000815
